:020000040800F2
:100000005023002049C40008EDC00008F1C00008DA
:1000100000000000000000000000000000000000E0
:1000200000000000000000000000000099C400086B
:10003000000000000000000099C40008BDC00008D6
:1000400099C4000899C4000899C4000899C400081C
:1000500099C4000899C4000899C4000899C400080C
:1000600099C4000899C4000899C4000899C40008FC
:1000700099C4000899C4000899C4000899C40008EC
:1000800099C4000899C4000899C4000899C40008DC
:1000900099C4000899C4000899C4000899C40008CC
:1000A00099C4000899C4000899C4000899C40008BC
:1000B00099C4000899C4000899C4000899C40008AC
:1000C00099C40008CDC0000899C4000899C400086C
:1000D00099C4000899C400080000000099C40008F1
:1000E00099C40008C5C0000899C40008D5C000081C
:1000F00000000000000000000000000099C400089B
:1001000000000000000000000000000000000000EF
:1001100000000000000000000000000099C400087A
:1001200099C4000899C4000899C4000899C400083B
:1001300099C4000899C4000899C4000899C400082B
:1001400099C4000899C4000899C4000899C400081B
:0401500099C4000846
:10015400030010B580B1D9789A7804884A40624087
:10016400200A5040C0B21A000C1C102900D91024D7
:10017400E4B21B199A4200D110BD117901324840F2
:10018400F8E7F7B50E00019015001C000720E3B155
:100194000438102A19D80AB10430B1B1271D12222B
:1001A400002138000CF0AEF9084BE5702380019B68
:1001B400A3702DB126B12A00310038000CF040FAAA
:1001C4002000FFF7C5FF20750020FEBD55AAFFFFE4
:1001D400F8B504000E00150007201CB112B1042963
:1001E40001D80320F8BD1622002128000CF08AF95A
:1001F40045F2AA52637821781B0201200B439342F3
:10020400F0D10D4B2B80A378AB70E278EA70102A02
:10021400E7D8171DB742E4DA1AB1281D211D0CF0E6
:100224000FFAE45D28002C75FFF792FF201A431E95
:100234009841C0B2D6E7C04655AAFFFF00B51128C1
:100244000CD80BF0A9FF0920181A262626262626E4
:100254002626262626261C1E0F4800BD302814D02C
:1002640005D8202813D0212813D10C48F5E7FF28FE
:100274000FD10B48F1E70B48EFE70B48EDE70B48CC
:10028400EBE70B48E9E70B48E7E70B48E5E70B48E2
:10029400E3E70B48E1E7C046989B0108E89B0108A7
:1002A4000E9C0108AC9B0108B79B0108C39B010885
:1002B400D19B0108199C0108FA9B0108D79B0108EE
:1002C400A09B010870477047202110B520B19020F1
:1002D400C00502F041F910BD9020C00502F03AF9C2
:1002E400F9E7902010B52021C00502F08AF910BD6D
:1002F400F8B507000D001026012422002A402C42E4
:1003040004D123000321380002F0E6F8013E640022
:10031400002EF2D1F8BD10B540F2115003F0A4FA4A
:100324000122902011002023C00502F0D5F80022FC
:10033400902020231100C00502F0EEF89020202127
:10034400C00502F007F940F2115003F08DFA40F2B3
:10035400117003F089FA90200C220721C00502F0E5
:1003640018F990200C2301220221C00502F0B4F8F0
:1003740090200C2301220021C00502F0CDF81D4875
:1003840003F05CFEE1211B48490203F08DFE0021CD
:10039400184803F0CFFE0021164803F0D9FE0021CF
:1003A400144803F0B9FE0021124804F0B9F8002102
:1003B400104804F0C3F804210E4803F0E9FE0821B4
:1003C4000C4803F0DDFE0B4803F0D0FE90202C21F6
:1003D400C005FFF78DFFC0210748FFF789FF002103
:1003E4000648FFF785FF06480021FFF781FF00203C
:1003F40010BDC04600440040000400480008004806
:100404000014004870B50E0014000025A54201DB5D
:10041400200070BD40F20771054804F04AF9002835
:10042400F8D0715D024803F04BFF0135EEE7C0469A
:100434000044004010B51021064802F0E1FA04001F
:10044400012805D11021034802F0E1FA200010BD73
:100454000024FBE70054004070B50400064D210061
:10046400064802F0CDFA012801D1002070BD013DFB
:10047400002DF4D10120F9E7A186010000540040C9
:1004840010B540F2165003F0EFF940F2157003F086
:10049400EBF9C02204211648164C02F07AF8C02366
:1004A40000220221124802F017F8C023032201217E
:1004B4000F4802F031F8200002F0AAF800232000CF
:1004C4001A00032102F0CCF811222000110002F0DE
:1004D40001F90021200002F0E3F8200002F0F2F814
:1004E400200002F0C5F9012023689843C00010BD24
:1004F400001400480054004070B5084C200002F07D
:10050400BCF922680123150008201D401A4203D1BA
:10051400200002F07DF8280070BDC0460054004061
:10052400F8B507000E0014001D000720C2B1BBB1CE
:100534007F0800223900254802F0E0F80121234811
:1005440002F0C0F9214802F00DF9204802F09AF9AE
:100554000120FFF781FF20B11C4802F099F9052022
:10056400F8BD3100194802F099F9FFF763FF20B193
:10057400164802F08DF90420F2E74020FFF76CFFE3
:100584000028E9D140F200423900104802F0B6F8E0
:1005940029000E4802F096F90C4802F0DDF80B48E9
:1005A40002F070F965190420FFF756FF0028D6D130
:1005B400064802F076F920700134AC42F3D14020B1
:1005C400FFF74AFF0028CBD0C9E7C04600540040DB
:1005D400F8B507000E0014001D000720BAB1B3B12E
:1005E40000221D48790802F089F8691C1A4802F0B3
:1005F40069F9194802F0B0F8174802F043F90120EC
:10060400FFF72AFF20B1144802F042F90520F8BD93
:100614003100114802F042F9FFF70CFF651920B1CF
:100624000D4802F035F90420F1E70120FFF714FF2B
:100634000028EBD12178084802F030F9FFF7FAFEE0
:100644000028F0D10134AC42EFD14020FFF704FF81
:100654000028DCD0DAE7C0460054004070B503003F
:100664000D0014000720B1B1AAB1590840F20042AC
:10067400104802F043F821000E4802F023F90D4817
:1006840002F06AF80B4802F0FDF82C190420FFF779
:10069400E3FE08B1052070BD064802F002F9287097
:1006A4000135A542F2D14020FFF7D6FE0028F2D052
:1006B400F0E7C0460054004070B50D001400410836
:1006C40000221A4802F01AF80221184802F0FAF837
:1006D400164802F041F8154802F0D4F80120FFF75B
:1006E400BBFE20B1114802F0D3F8052070BD2900EB
:1006F4000E4802F0D3F8FFF79DFE20B10B4802F03C
:10070400C7F80420F2E70120FFF7A6FE0028ECD189
:100714002100064802F0C2F8FFF78CFE0028F0D151
:100724004020FFF799FE0028E0D0DEE700540040A7
:100734001FB52A4802F0A1F8284801F069FFC02338
:1007440000220121264801F0C7FEC0230022012116
:10075400234801F0E1FE8021214801F0FBFE092439
:1007640040211F4801F0F8FE00230093009B4F2B0B
:1007740023DD40211A4801F0EDFE00230193019B83
:100784004F2B1EDD013C002CEAD18021144801F0DE
:10079400E3FE0294029B4F2B17DD4021104801F029
:1007A400D9FE00230393039B4F2B13DD80210C48B8
:1007B40001F0D0FEFFF764FE1FBDC046009B01336D
:1007C400D3E7C046019B0133D8E7C046029B0133FF
:1007D4000293DFE7C046039B0133E3E70054004084
:1007E4000014004870B5050040F2125003F03CF8C4
:1007F40040F2167003F038F840F2003204211A482F
:100804001A4C01F0C6FE40F20033002202211648C1
:1008140001F062FE40F2003303220121124801F08C
:100824007BFE200001F0F4FE0221200001F038FFDD
:10083400200001F041FF00222900200001F0B6FF52
:10084400200002F007F80121212003F085FF282170
:10085400200002F0E0F8200002F00AF801202368EA
:100864009843C00070BDC0460004004800580040D2
:1008740070B50B4C2821200002F0D1F8212003F0A0
:100884009BFF200001F0F9FF2268012315000820D6
:100894001D401A4203D1200001F0BAFE280070BDA9
:1008A40000580040014B18607047C046E413002014
:1008B400014B58607047C046E4130020014B187A7E
:1008C400C0B27047E413002010B50749074802F08E
:1008D400AAF804000020012C04D10448024902F0C3
:1008E400BBF8200010BDC0460300030600580040BA
:1008F400030070B507200D009BB14A1E1F2A10D8B3
:10090400084C0338627AD6B25AB920000A000A3079
:1009140019000BF095FE230030002A332B341D7090
:10092400267070BDE4130020F7B55249524802F016
:100934007AF80500012840D14E494F4802F08CF85E
:1009440000234E4A4E4C0421257213704D4A1268FE
:10095400D2032FD5260027004B4A65722A3613701E
:1009640033780A37DAB29BB963688BB16946CD1C18
:10097400CA700192290001A89847019941B12D78C4
:100984006B1E1F2B04D82A0038000BF059FE35705B
:10099400230020002B332A34197822780A3091421C
:1009A4005CD219784A1CD2B2415C1A70324801F008
:1009B40075FF0221304802F02EF834492E4802F027
:1009C40032F801280ED12C4801F06BFF2C4B1A0091
:1009D4002C3211781F2905D814782D33611CC9B223
:1009E400117018552A49244802F01DF8012814D121
:1009F400234B5A7A002A33D01A0018002B322A3398
:100A040011781B780A3099422AD211784B1CDBB238
:100A1400415C1948137001F041FF1E49164802F069
:100A240002F8012819D1164C1A49134802F014F897
:100A34000023220023722C32137833B1236823B1AC
:100A4400200011782D30C9B2984706210A4801F0D8
:100A5400E6FF0023094A13706372F7BDFF21A5E77F
:100A6400FF21054801F01AFF0221034801F0D7FFD6
:100A7400D3E7C046030003060058004010140020CA
:100A8400E4130020185800400F140020020002064E
:100A940001000106050005067FB540F21C7002F056
:100AA400E3FE40F21F7002F0DFFE02F0CBFD40F6E1
:100AB400001003F05DF840F6011003F03BFA012842
:100AC400F9D140F2002003F023F840F60F0002F0C1
:100AD400CBFE01F0EFFF01F0C7FF1422002101A8B3
:100AE4000BF010FD0A4B01A8039302F081F801F00A
:100AF400D9FF40F2001002F005FB41F2000002F0C1
:100B0400B9FA0221292003F027FE002007B000BD16
:100B14007F00F900F0B507008BB088B33C2640F69F
:100B2400106505AC200002F0C5F8237962796B43A7
:100B34007243A4799B18E418E41901AF1022A4B2FB
:100B4400002138000BF0DEFCB4FBF5F35D437B724F
:100B5400B4FBF6F3651BADB2B5FBF6F55E43A41B1F
:100B6400BD72FC7201F0A6FF3900012002F0E2F828
:100B7400012002F059F901F09DFF0122024B1A7085
:100B840000200BB0F0BDC0463114002010B5012088
:100B940002F062F901F08EFF0022014B1A7010BDC1
:100BA4003114002010B586B001AC200002F082F8A8
:100BB40040F610602379627958433C235343C018AC
:100BC400A379C01806B010BD70B505000C00042848
:100BD4000AD801F06FFF681E032803D80BF0DCFA73
:100BE4000507090B054B1C6070BD054BFBE7054B66
:100BF400F9E7054BF7E7054BF5E7C04650280040F9
:100C040054280040582800405C28004060280040D8
:100C140010B504000020042C0AD801F04BFF601E1C
:100C2400032803D80BF0B8FA0507090B054B18681D
:100C340010BD054BFBE7054BF9E7054BF7E7054B03
:100C4400F5E7C0465028004054280040582800408A
:100C54005C2800406028004010B501F02BFF094BD0
:100C64001A68094B9A4201D0012010BD40F20010CD
:100C740002F03EFA0128F7D1FF3002F043FA0020D7
:100C8400F3E7C0465C280040EFBEADDE10B501F0CE
:100C940011FF024B024A1A6010BDC0465C28004096
:100CA400EFBEADDE10B540F2001002F021FA0400F0
:100CB4000020012C04D10130FF3002F023FA20007F
:100CC40010BD10B540F2001002F012FA012805D14F
:100CD400FF3002F017FA0022014B1A7010BDC04613
:100CE4003114002010B540F2125002F0BDFD022371
:100CF40000220121104801F0EFFB00220223110021
:100D04000D4801F009FC02210B4801F023FC0123EA
:100D140000221900084801F0DFFB00220123110022
:100D2400054801F0F9FB0448012101F015FC0020FD
:100D3400024B187010BDC046000400483214002055
:100D440007B50221084801F007FC0122074B1A707D
:100D54000023074A0193019B934200D907BDC04673
:100D6400019B01330193F6E700040048321400208C
:100D7400FF70020010B50221034801F0EBFB0022D2
:100D8400024B1A7010BDC046000400483214002003
:100D9400014B18787047C04632140020012110B569
:100DA40018B1044801F0D6FB10BD024801F0D4FB91
:100DB400FAE7C0460004004807B50120FFF7EEFF3C
:100DC4000023074A0193019B934203D90020FFF7B4
:100DD400E5FF07BDC046019B01330193F3E7C0461D
:100DE400FF69180010B50120FFF7D8FF10BDC046F9
:100DF400002010B502F0BCFE012003F09BF801288E
:100E0400FAD1002002F070FD02F08EFD04000028EB
:100E1400FAD102F099FD40F2004002F09FFD20005B
:100E240002F0A8FD43F67F63C021084A08485360D6
:100E3400036A09061B021B0A0B430362072394601F
:100E44001360044B20001C7010BDC04610E000E08D
:100E540000ED00E03414002010B5084C2378012B79
:100E64000AD0A02002F070FD40F2CF72044B5A6009
:100E740000229A600123237010BDC0463414002060
:100E840010E000E010B5074C23784BB1002002F0CD
:100E94005BFD43F67F63044A536000239360237031
:100EA40010BDC0463414002010E000E0014B187857
:100EB4007047C0463414002010B5FFF7E7FEFFF773
:100EC40059FFFFF7C9FF40F2157002F0DBFC40F256
:100ED400117002F0D7FC022440F2841340F2002186
:100EE400064AD150D45002F0ADFB40F2001002F09B
:100EF40099FB034B1C7002F065FB10BD00E100E0A0
:100F04003414002010B5FFF7A7FE01235840C0B2E7
:100F140010BD044A516853685B1A834200D370477A
:100F240030BFF8E73414002013B50B4B10211B78A5
:100F3400012B00D10E3900231C00834200D113BDC4
:100F44000194019A8A4201D30133F6E7C046019A1B
:100F540001320192F5E7C04634140020014B586871
:100F64007047C04634140020024A5368013353606A
:100F74007047C04634140020062802D10122014BD8
:100F84001A7070473C14002040F23042002110B522
:100F940025480BF0B7FA244A244BD0215360244B44
:100FA40010009360234BD360234B1361234B536195
:100FB400234B9361234BD36105F0F8FD38B1052829
:100FC40002D90824200010BD1F4B1C5CFAE7164808
:100FD40005F0F9FD040020B10528F2D81A4B1C5C79
:100FE400F0E70A21104807F0B7FD05210E4807F085
:100FF4000FFE012206210C4807F098FA21000A4846
:1010040007F0A6F80121084807F0F4F82100064883
:1010140007F044F940F2E831034803F07FFF210070
:10102400014803F0D3FFCDE740140020ADA8000829
:10103400EDA8000811A90008B1A900082DAA00080C
:1010440045AA00087D0F0008509A010810B5012236
:101054000521134806F096FC01220421104806F0ED
:1010640091FC012203210E4806F08CFC012202218E
:101074000B4806F087FC01220948110006F082FCA7
:1010840001220021064806F07DFC0021044806F0F8
:10109400D3FC0121024806F0D1FB002010BDC0465C
:1010A4004014002010B50021094806F0C7FB0022B7
:1010B4000521074806F066FC00220421044806F0D6
:1010C40061FC00220321024806F05CFC002010BDF4
:1010D40040140020002307B5034801A9019303F03D
:1010E4009DFF01980EBDC04640140020014B1878A6
:1010F400C0B270473C1400200022014B1A707047A4
:101104003C14002010B5024806F0BEF810BDC046DD
:101114004014002007B52022002116480BF0F2F9F4
:10112400144A154BB4215360144B10009360144BB4
:10113400D360144B1361144B5361144B93610AF045
:101144005BFB18B1032811D908200EBD09480AF029
:101154008DFB0028F6D100230621064801AA01933D
:101164000AF050FB0028F0D00920EEE7084B185C89
:10117400EBE7C0467018002039BA000879BA0008B5
:101184009DBA00083DBB0008B9BB0008D1BB0008EC
:10119400569A010810B505480AF0DCFB0300082044
:1011A400032B01D8024AD05C10BDC0467018002041
:1011B400569A010837B50500072460B100232100C1
:1011C4000B4801AA01930AF01DFB040028B103286F
:1011D4000BD8084B1C5C20003EBD0749019815F054
:1011E4001FFD16F0C1F82880F5E70824F3E7C04690
:1011F40070180020569A01080000C84237B505004F
:10120400072460B1002306210B4801AA01930AF0C8
:10121400F9FA040028B103280BD8084B1C5C200001
:101224003EBD0749019815F0FBFC16F09DF8288097
:10123400F5E70824F3E7C04670180020569A010821
:101244000000C8422022002110B516480BF05AF9BC
:10125400144A154B88215360144B10009360144BAF
:10126400D360144B1361144B5361144B93610AF014
:10127400B5F838B1032802D90824200010BD104B5A
:101284001C5CFAE707480AF0D3F8040020B10328ED
:10129400F2D80B4B1C5CF0E7010002480AF0B1F8ED
:1012A400EBE7C04690180020E1B5000821B600081D
:1012B40045B600089DB6000819B7000831B7000804
:1012C4005A9A010810B502480AF08EF8002010BDA1
:1012D4009018002073B506000D00072470B169B1A1
:1012E400002369460F4801AA009301930AF0EBF822
:1012F400040028B1032812D80B4B1C5C200076BDD7
:101304000A49009815F08CFC16F02EF80749308035
:10131400019815F085FC14F063FE2880EEE708249C
:10132400ECE7C046901800205A9A01080000C84211
:101334002422002110B524480BF0E4F8224A234B60
:10134400AE215360224B10009360224BD360224B9A
:101354001361224B5361224B9361224BD36109F0F9
:1013640039FC38B1052802D90824200010BD1E4BD1
:101374001C5CFAE7144809F058FC040020B1052865
:10138400F2D8194B1C5CF0E70323012202210E481A
:1013940009F0B5FC21003F220B4809F0C8FC3F22AC
:1013A4000121094809F0C3FC112301220421064844
:1013B40009F0CCFC01220621034809F09AFD03211F
:1013C400014809F065FCD0E7B0180020A1B000087E
:1013D400E1B0000805B10008A5B1000821B2000879
:1013E40039B200084FB200085E9A010810B50548EA
:1013F40009F0EDFD03000820052B01D8024AD05C5A
:1014040010BDC046B01800205E9A010870B50400F3
:10141400C2B007207CB16B4600269D1D2B00202204
:101424000A4802A92E8009F019FD30B1267005285A
:101434000AD8074B185C42B070BD2B8813B16223E5
:101444002370F8E72070F6E70820F4E7B0180020CE
:101454005E9A0108030007200BB100201870704742
:1014640010B5FFF70DF8040048B9FFF78DFDFFF73D
:1014740051FE040018B9FFF7E5FEFFF759FF2000FD
:1014840010BD10B5FFF7E2FDFFF784FEFFF71AFF6A
:10149400FFF7ACFFFFF730F810BD000070B5040093
:1014A4000D0048B1402200210BF02CF82B1C0A2D12
:1014B40000D90A233E34237070BDF8B50400E0B1AE
:1014C40007003E373B78C3B106003C3635786B00E5
:1014D4001952FFF767FB0435AD006519686033786E
:1014E4003A780133B3FBF2F151435B1A33703D3464
:1014F40023789A4201D901332370F8BD020088B1E0
:1015040003003D331B78180063B113003C33197892
:101514004B1EDBB221B913003E331B78013BDBB217
:101524005B00985E70470200A8B103003D331B784E
:1015340000208B420FD913003C331878431A013B27
:101544000131DBB2884204D211003E3109785B18C4
:10155400DBB25B00985E704710B5040028B114221A
:1015640000210AF0CFFF0023A38710BDF0B587B098
:1015740003000490002865D03D331B780193022BAF
:1015840060D900241F0003940294251C019B049835
:10159400DE1B013FFFB23900FFF7C5FFF6B205902D
:1015A400300015F04FFF061C059815F0FDFE311CA8
:1015B4000590281C14F06CFF0599051C029814F082
:1015C40067FF05990290301C15F02AFB011C039853
:1015D40014F05EFF311C0390301C15F021FB011C3C
:1015E400201C14F055FF041C002FCFD1019815F0D6
:1015F40029FF211C061C15F013FB291C041C281CA4
:1016040015F00EFB011C201C15F05AFC0E49041C9D
:101614000AF026FE20B10D49201C0AF035FE88B9D7
:101624000399301C15F0FCFA0299061C281C15F0CD
:10163400F7FA011C301C15F043FC211C15F032F99B
:1016440007B0F0BD0020FBE76F12833A6F1283BA34
:10165400030030B588B102003D321278100062B147
:1016640051001800591800230025445F02301B194B
:101674008842F9D193FBF2F000B230BD030010B5FB
:1016840090B102003D32127872B15200821847F6CE
:10169400FF7019880C1C09B2814200DD041C02335E
:1016A40020B29342F5D110BD47F6FF70FBE703006B
:1016B40010B588B102003D3212786AB15200821826
:1016C400064819880C1C09B2814200DA041C023352
:1016D40020B29342F5D110BD0048FCE70080FFFF23
:1016E400030008B13D3318787047030040B102008D
:1016F40000203D323E3312781B789A424041C0B2FA
:101704007047F0B597B0019010B9002017B0F0BD44
:10171400019C3D342378022BF7D90029F5D0FFF73B
:1017240041FA0B90237800265B42DDB200230027A8
:101734000A93019B089609973C331493019B0696E0
:101744000797029603973E331593002D3ED10A9BCB
:101754000A9ADB1730003900019314F013FC029A43
:10176400039B0E900F911000190014F00BFC0E9CBB
:101774000F9D40F2E732241A8D41002312196B4168
:1017840011001BB940F2CE739942BED90898099949
:101794000A9A019B14F0F6FB069A079B109011918C
:1017A4000298039914F0EEFB109A119B121A8B41C4
:1017B4001900100014F02CFC2900061C200014F061
:1017C40027FC011C301C15F06DF89FE7E9430198D4
:1017D400C9B2FFF7A8FE149B0D906A421B78D2B2DF
:1017E400934253D3EB18DBB2019A04339B00D31812
:1017F4005C680B9BA3424DD31C1B3C23B4FBF3F24C
:10180400131C92B2782A00D97823244A9BB25B0035
:101814009B5A64420C930C9A0A9B94466344604618
:1018240022000A930021E317139314F0ABFB029AEE
:10183400039B049005910498059912184B41029258
:1018440003930D9B0D9ADB1700210C98129314F04F
:1018540099FB069A079B12184B4104980599069226
:1018640007930D9A129B14F08DFB089A099B12188A
:101874004B41200008920993049A059B139914F094
:1018840081FB013536184F41EDB25EE7159A1278A7
:101894009B18A7E70B9B024A9B18ADE7649A0108C3
:1018A40080510100F0B587B004900391002861D005
:1018B40002295FD90024002602940194251CF0B269
:1018C40015F0C0FD049A7300071CD05E15F06CFD82
:1018D400391C0590281C14F0DBFD0599051C0198A2
:1018E40014F0D6FD05990190381C15F099F9011CE6
:1018F400029814F0CDFD391C0290381C15F090F9B3
:10190400011C201C14F0C4FD0136039AF3B2041C1C
:101914009A42D4D8100015F095FD211C061C15F030
:101924007FF9291C041C281C15F07AF9011C201CC1
:1019340015F0C6FA0021041C0AF092FC80231B0651
:10194400E31800B9231C0C49181C0AF089FC88B957
:101954000299301C15F064F90199061C281C15F035
:101964005FF9011C301C15F0ABFA211C14F09AFF2E
:1019740007B0F0BD0020FBE76F12833A030010B5F7
:1019840098B13D331A780023022A0ED9FFF7EEFDF1
:101994000749041C0AF078FC012330B90549201CCE
:1019A4000AF05EFC431E98414300180010BDC04677
:1019B4000000A0400000A0C0030010B598B13D3362
:1019C4001A780023022A0ED9FFF79BFE0749041C4C
:1019D4000AF05AFC012330B90549201C0AF040FCE6
:1019E400431E98414300180010BDC0466F12033CCB
:1019F4006F1203BC030010B560B13D331A780023A5
:101A0400022A07D9FFF7B2FD03490AF029FC431E55
:101A140098414300180010BD000040C070B5040098
:101A2400D8B103003D331B780020022B15D92000C8
:101A3400FFF764FD05002000FFF7A0FF40F25912F4
:101A440003000320954208DD0238022B05D0313211
:101A54000330954201DC5B00D8B270BD03002AB1AB
:101A6400C017CA0F8B425041C0B27047C00FCA178B
:101A740099425041F8E7F0B50F0087B015000021F6
:101A84000C2201900AF03EFD002F68D03C003D344A
:101A94002378022B63D929003800FFF732FE009027
:101AA400FFF780F80025049026780295741EE4B2AE
:101AB400FF2C57D1300015F0C5FC041C011C029802
:101AC40014F0F0FE011C0290201C15F0A9F80299F4
:101AD40015F0A6F8011C281C15F0F2F97442002632
:101AE4000390E4B2002C55D1504903980AF0CCFB82
:101AF4000700002800D189E00399301C14F0D2FEBD
:101B0400011CFE20800515F0DBF90021051C0AF0FC
:101B1400A7FB00B10025FE21281C89050AF0B4FBAF
:101B240008B1FE25AD05424900982E1C0AF0ACFB15
:101B3400002862D13F4900980AF092FB00285CD14A
:101B4400281C3D490AF0A0FB050010B1E51E6B42BC
:101B54005D41019B009A5E601A601C725D7201987F
:101B640007B0F0BD21003800FFF7DDFC15F01CFCC8
:101B7400011C0390029814F08BFC03990290081C3A
:101B840015F04EF8011C281C14F082FC013C051CC5
:101B9400E4B28DE7E1433800C9B2FFF7C4FC3B006F
:101BA4003C331D786342DBB29D4221D315F0FCFB2C
:101BB4006519EDB20435AD007D19049B0590686884
:101BC4000134181A15F03EFC009915F029F8029911
:101BD40014F05EFC011C059815F072F9011C15F057
:101BE4001FF8011C301C14F053FCE4B2061C79E706
:101BF4003B003E331B78ED18D8E70324A0E7032409
:101C040000263D00A5E700262500A2E70849009824
:101C14000AF03AFB05000028F1D1064900980AF0C1
:101C24001FFB0028EFD00324002692E76F12833AAB
:101C34006F12033C6F1203BC3333333F012010B5E2
:101C4400FEF7E6FF40F60F63421E9A4201D8074BA7
:101C54001880FEF7A7FF064B186058609860D8609C
:101C640005201861FEF756FF10BDC0460000002095
:101C7400D4180020F7B56B466A469E1C002301ACBD
:101C8400D380551C537033802380FFF70BFA0A204E
:101C9400FFF73FF93000FFF78DFA2000FFF7AEFAA7
:101CA4000023E05E15F080FB134914F0FBFD071CD4
:101CB4000023F05E15F078FB0F4914F0F3FD391C96
:101CC40000F012FA6B462000991DFFF703FB280071
:101CD400FFF79CFB287815F0B5FB00F0ABFAFEF794
:101CE40061FF064B186058609860D860044B1888F0
:101CF400FEF710FFF7BDC0460000C842D41800200C
:101D04000000002040F6106210B5031C90420DD96B
:101D1400131C9CB2084A210001201380FEF754FFD3
:101D2400FEF734FF2000FEF7F5FE10BD82B2052A4F
:101D3400EFD20523EDE7C0460000002041F6204223
:101D4400031C904200D9131C9AB21E2A00D21E23EF
:101D5400014A53807047C04600000020014B188898
:101D64007047C0460000002010B50400FEF71AFFBB
:101D74000200601E002303280CD80F4B0AF00CFA53
:101D840002170C100D491B680988D21A00238A42D5
:101D94005B41DBB2180010BD08495B684988F4E771
:101DA4009B68D21A042393429B415B42F2E7DB68AF
:101DB400D21A40F25723F6E7D4180020000000207E
:101DC400F0B585B00700FEF7EDFE454D0400022F87
:101DD40000D172E00026042F02D1FFF74BFF012649
:101DE4000120FFF7C1FF019010B3002302AA9380E2
:101DF40003A8D380971DFFF7DDF9A0B90023F85E8F
:101E040015F0D2FA374914F04DFD02AB061C04203C
:101E1400185E15F0C9FA334914F044FD311C00F082
:101E240063F9019E2C603800FFF7E8F900B9EC6013
:101E34000220FFF799FF070050B1002302AA938004
:101E4400D380911D03A8FFF745FA08B93E00EC6062
:101E54000320FFF789FF019070B102AB9F1D00239F
:101E640038003B70FFF7D2FA30B9387815F0EAFA47
:101E740000F0E0F9019E6C600420FFF775FF58B193
:101E8400FFF728F9070030B10220FEF7C1FE391828
:101E94000220FEF799FEAC6000F002FA124B58885B
:101EA40040F25823984219D803002B61FEF732FE02
:101EB4000EB9FFF701F805B0F0BDFFF7F3F8FFF72F
:101EC40009F9060030B13800FEF7A2FE31183800D7
:101ED400FEF77AFEAC60FFF7B9F880E71800E4E794
:101EE400D41800200000C84200000020013800235C
:101EF40000B5032805D8074B0AF04EF90209050777
:101F04001B68180000BD5B68FBE79B68F9E7DB68AA
:101F1400F7E7C046D418002010B50220FEF778FE7B
:101F240010BDC04670B5184C0D00E278824220D234
:101F34000132111CD2B2824200D9011CC9B2022959
:101F440018D0032919D023780F4A0133DBB2137058
:101F5400012B0ED90020E170257120706070A070F3
:101F6400FEF732FEE378012B0AD0023B1E20012B40
:101F740007D970BD6378621CE7E7A378A21CE4E785
:101F84007820FFF7BFFEF4E7E8180020F8B53D4DD0
:101F9400EC7814B92C706C71F8BD2B79013CE4B267
:101FA400022B32D0032B4DD0012B0DD12F0008373B
:101FB4003800FFF7A3FA06003800FFF7DFFC012C16
:101FC40005D0022C03D0DCB100236B71E4E740F2AE
:101FD40059139E42F8DD0228F6D06B790133DBB247
:101FE400012BF2D9002021006871EC70FEF7ECFDA2
:101FF400EB78FBBB40F258202B71FFF783FECBE755
:1020040040F263139E42DFDD12E02F0008373800F0
:10201400FFF774FA06003800FFF7B0FC012C0AD071
:10202400022C08D0002CCFD140F27B139E42CBDC93
:102034000028D2D0C8E740F28A139E42C4DC0128AB
:10204400CBD1C1E72F0048373800FFF757FA060015
:102054003800FFF7CFFC012C09D0022C04D0002C4F
:10206400B2D140F2B633CDE740F25233B1E740F299
:102074008433AEE77820012BBFD0022B00D08BE74E
:102084001E20BAE7E818002070B5124C0A2120007F
:102094000830FFF703FA20000F4D0A214830FFF7FC
:1020A400FDF9280080220D4B0D490830D20500F0BF
:1020B400A1F90C4B0020AB61FEF7AAFD0023032815
:1020C40000D91800EB61E070237123706370A37072
:1020D40070BDC046E81800206819002000002041A7
:1020E4000AD7233C00001242F8B54A4B0D1C041CCD
:1020F40018600021281C0AF0BDF8B8B94649281C0C
:102104000AF0C2F890B9291C201C14F0D9FE4349E6
:10211400061C281C0AF0B8F8002835D08021301C91
:10212400C9050AF09DF8FE2100283AD13C4D211C36
:102134002800083000F066F93A4E3B49A86114F0D3
:102144006FFD370015F010F9083701B23800FFF7BA
:10215400B4F93549A86914F063FD15F005F940F2A6
:10216400087104B23800FFF727FC40F25913050048
:102174009C421CDC022802D0053B9C4222DC01214B
:102184000320FFF7CFFEF8BD2749281C0AF068F8A2
:102194000028CBD02449301C0AF076F80028C5D09A
:1021A400FC21201C890514F073F9041CBEE740F2DD
:1021B4008A139C4206DD012802D005339C4201DDCE
:1021C4000221DDE7300040F208710830FFF799FA88
:1021D4001649061C0AF044F810B101210800D0E7A2
:1021E4001349301C0AF050F810B102210120C8E74D
:1021F400A4B223005B3BFF3B042B04D8022DECD09C
:10220400FFF7C4FEBFE7853CFF3C062CF8D8012D40
:10221400F6D1EAE704000020000070420000F0411B
:1022240068190020E818002000002041CDCCCCBC67
:10223400CDCCCC3C174B70B51749586014F0F0FC6A
:1022440015F092F8154D04B2483521002800FFF727
:1022540034F92800FFF7CEFB40F252339C4206DCEF
:1022640002280BD103210800FFF75CFE70BD40F289
:1022740084339C4205DC03210228F5D0FFF786FE57
:10228400F4E740F2B6339C42F8DC0228F6D103218D
:102294000138E9E70400002000002041E81800208C
:1022A40070B51B4E88B0FEF77DFCF478022C03D089
:1022B400032C07D008B070BDFEF77EFDC820FEF7E2
:1022C40028FEF7E7134AD369C31A1D2BF2D9D0614C
:1022D400FEF736FD337901AD6B700F4B0F4918686B
:1022E4002C7014F09DFC13F07BFE02AC688023007C
:1022F400042229001020FDF744FF28B9E1782000CA
:102304000531C9B2FEF7F4FAFEF76CFDD2E7C04618
:10231400E818002068190020040000200000204173
:10232400014BD8787047C046E8180020014B187953
:102334007047C046E818002010B5040098B10A4858
:10234400C3782370037908306370084B1A685B689C
:102354006260A360FFF70AF9054BE060DB69236163
:10236400FEF716FD207510BDE818002004000020BB
:1023740068190020F7B505000E0070B169B10E4F61
:1023840038000830FFF7ACF9031C0A2800D90A23E7
:1023940000242B702B78A34200D8F7BD38006300CB
:1023A400F318210008300193FFF7BDF8019B0134B5
:1023B4001880E4B2EEE7C046E818002010B5002407
:1023C4000A4B2100DC701C711C705C709C70084B03
:1023D4002000DC61FEF7F8FB40F25820FFF792FC86
:1023E4002000FEF7DBFCFEF7C5FC10BDE81800205A
:1023F4006819002010B520B1002443600460816096
:10240400C26010BDF7B504000D1C10B307688168E5
:10241400406814F03DF8E168061C14F039F8011C1A
:10242400301C14F03FFA391C0190281C14F048FDAC
:10243400019914F0F5FB391C14F02AF82060051CEE
:10244400FE200199800514F03BFD311C14F0E8FBDB
:102454006060281CFEBD00001B4B10B5984225D0BF
:1024640007D89023DB05984210D0184B984216D019
:1024740010BD174B984220D0164B9842F8D140F625
:10248400162001F015FA40F6162005E040F611205A
:1024940001F00EFA40F6112001F00EFAE8E740F6DA
:1024A400122001F005FA40F61220F5E740F6132059
:1024B40001F0FEF940F61320EEE740F6142001F097
:1024C400F7F940F61420E7E7000800480004004844
:1024D400000C004800140048F0B585B001910327B2
:1024E4000021029203930268C36801248C40039D77
:1024F40025420AD03D004C00A540019EAA43AB43AF
:10250400029DA640A54032432B4301311029ECD152
:102514000260C36005B0F0BDF7B50192012916D180
:10252400416819430024012603274160816835006E
:10253400A5402B4206D03A006500AA409143019A77
:10254400AA4011430134102CF1D18160F7BD4168D8
:102554009943E7E781617047816270470AB18161FD
:1025640070478162FCE741617047036919400800C4
:10257400431E9841C0B27047006980B270474369F6
:1025840019400800431E9841C0B27047406980B2A8
:102594007047F7B5002401260F270091016A436AAA
:1025A40001923500A540019A2A4206D03A00A500BE
:1025B400AA409143009AAA4011430134082CF0D157
:1025C400002401260F27250032000835AA401500F3
:1025D400019A2A4206D03A00A500AA409343009AE1
:1025E400AA4013430134082CEDD101624362F7BDC4
:1025F40080235B020B43C361C161C361C369C369C7
:102604007047C16270474FF6FF73C3627047C0469C
:10261400104B10B598420ED00F4B984212D00F4B6E
:10262400984207D140F2154001F042F940F21540BA
:1026340001F042F910BD40F2164001F039F940F2C0
:102644001640F5E740F2184001F032F940F2184024
:10265400EEE7C0460058004000C00040005400406F
:1026640030B504690C4D2401240904610469120580
:102674002C4004610469094D09072C40F0252D0400
:102684002A401143F022046112031B04046913401D
:1026940019432143016130BDFFFF0FFFFFFFF0FF2E
:1026A4000368044A09021340036003681943016084
:1026B4007047C046FFF0FFFF41F200030268134376
:1026C400036070470368024A134003607047C046C2
:1026D400FFEFFFFF10B50369074C09062340FF24F1
:1026E400036103692240A34303610369090C114395
:1026F4001943016110BDC046FF00FFFF43689B0AF8
:102704009B02436043680B434360436803490B40A7
:1027140043604368134343607047C046FFFBFFFFB9
:1027240041F2000342681343436070474368024A1E
:10273400134043607047C046FFEFFFFF40F60003BD
:1027440042681343436070474368024A134043603E
:102754007047C046FFF7FFFF802342689B04134382
:10276400436070474368024A134043607047C04661
:10277400FFFFFFFD802302681B03134303607047C0
:102784000368024A134003607047C046FFFFF7FF27
:102794000368024A134003607047C046FFFFFDFF11
:1027A400802302689B0213430360704748F20003CE
:1027B4008905890D114381608268134383607047E2
:1027C40090300368034A1340036003680B430360BB
:1027D4007047C046FF01FFFF8368024A13408360CD
:1027E4007047C046FF7FFFFF10B5FE24C368214039
:1027F4001943C160C368064912020B40C360C36831
:102804001A4348F20003C260C2681343C36010BD98
:10281400FFF8FFFFC368024A1340C3607047C04615
:10282400FF7FFFFF80690002400E7047802302682B
:102834005B021343036070470368024A134003605A
:102844007047C046FFFFFEFF48F20003426813438F
:102854004360704780230268DB02134303607047C0
:102864000368024A134003607047C046FFFFFBFF42
:1028740001230268134303607047012203689343F2
:102884000360704742F20003426813434360704799
:1028940044F200034268134343607047C9B2816243
:1028A4007047406AC0B27047802342685B04134398
:1028B400436070474368024A134043607047C04610
:1028C400FFFFFFFE4368044A090413404360436862
:1028D400194341607047C046FFFF00FF026821B9F9
:1028E40044F2000313430360704748F20003F9E71E
:1028F400036819B9024A134003607047014AFAE7B2
:10290400FFBFFFFFFF7FFFFF80234268DB04134309
:1029140043607047802302681B04134303607047BD
:102924000368024A134003607047C046FFFF7FFFFD
:10293400006AC0B2704780230268DB03134303605C
:1029440070470368014A134003607047FFFFBFFFED
:10295400802302689B031343036070470368024AA1
:10296400134003607047C046FFFFDFFF8023026807
:102974005B031343036070470368024A1340036018
:102984007047C046FFFFEFFF802342691B061343D5
:102994004361704743695B005B084361704748F2D9
:1029A400000342691343436170474369014A13407A
:1029B40043617047FF7FFFFF4369054A09041340E1
:1029C4004361044A43691140194341617047C04659
:1029D400FFFF00F00000FF0F436909051B0B1B03F9
:1029E40043614369090D1943416170474369034ACF
:1029F4001340436143690B4343617047FFEFFFFF9B
:102A0400836919400800431E9841C0B27047C369E6
:102A14000B43C361704703680B430360704703684B
:102A24008B430360704701220B049B0D1B1870B588
:102A34001D688B0D1B181F240800160020408640BB
:102A44001B680020354206D0090C21408A401340FF
:102A54005A1E9341D8B270BD0123C902C90E8B40DE
:102A6400C2691343C361704744F20003402182B03A
:102A740001930B4B01201A680A420ED18022186878
:102A840002431A601868019A0840013A019212B18F
:102A94000028F7D040204006C00F02B07047C0465F
:102AA4000C2800408021024A13688B43136070474E
:102AB4000C28004048F2000313B5202101930E4B6B
:102AC40001201B680B4215D1CA230C4A0C4C13601D
:102AD400773B136023688B4323602068019B084085
:102AE400013B019313B10028F7D02020FF23800677
:102AF400C00F136016BDC0460828004024280040BB
:102B04000C28004044F20003F7B500220193274B40
:102B1400274D1A60CA232B60773B2B60254B264830
:102B24001968264F014019602549264E0A60264936
:102B34000A6026490A603A601A6825490A40042155
:102B44001A60326801980A400138019050B3002A93
:102B5400F7D007211A6800248A434FF6FF711A60E0
:102B64001C4A11601A681C60FFF77EFFB8B142F27C
:102B74000112194B1C60194B1A60194B194A1A603F
:102B8400072333600E4B1C60104B1C600E4B1C6003
:102B9400154B3C601C60154B1C60FFF78BFFFF233B
:102BA4002B6001E0002AD4D1FEBDC046402800407D
:102BB4002428004008280040FFFCFFFF482800406C
:102BC4001C2800400C2800402028004044280040D5
:102BD400FFFBFFFF142800400028004004280040A9
:102BE40010280040FF007F002C2800403C280040B3
:102BF400F0B5037887B00093C378294F01934378E5
:102C04000400029383780393C3680493437905799A
:102C14000593CA2386793B60773B3B60FFF724FF2B
:102C2400D0B3FE222389D2031B04134062892D04EE
:102C34005204520C13431B4A03991360FC239B0355
:102C44001D407F2347F600721E40049B1E43059BD4
:102C540035431B0213403F221D43134B11401D609B
:102C6400009B019A1B040B4341F600715207120C9E
:102C74001343029A12020A40402113430B4A136081
:102C84000B4B1A688A431A601A6821690A431A604E
:102C9400FFF708FFFFF70EFFFF233B6007B0F0BD0F
:102CA4002428004010280040002800400428004048
:102CB40008280040164B70B51A68164B16491B6855
:102CC400164C1D0C096824680570DD04ED0E457072
:102CD4003F251E001B045B0FC370130C2B402E40BA
:102CE40003714035130A2B40437113002B40837149
:102CF4000B0C2B4003818023DB031A40402349043F
:102D0400490C1C4086704181C260046170BDC0469C
:102D140000280040042800401028004008280040F3
:102D2400024B1868024B1B687047C04628280040B5
:102D340004280040CA2330B57F25134A1360773B2B
:102D440013604C680B682343CC682343CC7A2C4033
:102D5400FC2523430C7AAD0524062C40FC25234393
:102D64004C7AAD0324042C40234347F60074897A3B
:102D7400090221400B43012804D104490B60FF23BD
:102D8400136030BD0249F9E7242800401C280040A4
:102D94002028004010B5CA24064B11431C60773C20
:102DA4001C60012804D1044A1160FF221A6010BD7E
:102DB400024AF9E7242800404428004048280040FB
:102DC40001281AD10E4B1B680E4A3F201A400A6094
:102DD4008022D2031A40CA608022D2051A404A6077
:102DE4001A0E02400A721A0C02404A7240301A0A41
:102DF400024003408A72CB727047034BE3E7C0463C
:102E04001C2800408080808020280040012804D1B4
:102E1400034B18684004400C7047024BF9E7C04666
:102E24004428004048280040CA23094A1360773BDD
:102E34001360084B012807D140F2001118680143C0
:102E44001960FF231360704740F200211868F6E709
:102E5400242800400828004048F2000337B50193B5
:102E6400CA231449144C0B60773B0B60134B1A684C
:102E7400012810D1124D2A401A602368019A034098
:102E8400013A01920AB1002BF7D0FF220A605A1EC0
:102E94009341D8B23EBD02250A4802401A60236815
:102EA400019A2B40013A0192002AEED0002BF6D071
:102EB4000223EAE7242800400C28004008280040A8
:102EC400FFFEFFFFFFFDFFFFCA23084A10B5136092
:102ED400074C773B1360236806490B4040F600011A
:102EE40003430B432360FF23136010BD24280040D9
:102EF40008280040F7F7FFFFCA22064B06491A606C
:102F0400773A1A600A68054802400A60FF221A608C
:102F14007047C0462428004008280040FFF7FFFF00
:102F2400CA238021094A49041360773B1360084B84
:102F3400884205D1196808431860FF23136070475D
:102F44001968044801401960F7E7C0462428004086
:102F540008280040FFFFFFFE80210E4BC9031A68BA
:102F64000D4B11401B6810B58160D904C90E017066
:102F74003F211C001B045B0F8370130C0B400C409F
:102F8400C3704031130A0B400A404470037142710C
:102F940010BDC0463028004034280040014B18685A
:102FA4007047C046382800401D4B01681A688A43A0
:102FB4001A601A681B490A401A60826892B11A683A
:102FC40019490A401A60027C32BB48F200021968AF
:102FD4000A431A601A68C1680A431A601A68816849
:102FE4000A431A6001681A6849008A431A604268F1
:102FF40022B10268196852000A431A6080221968D3
:1030040091431960017E11B119680A431A601A6864
:1030140001680A431A6070471A684169D8E7C046D4
:1030240040280040FFE7FFFFFF00FFFF024A13684C
:10303400834313607047C04640280040044B054951
:103044001A680A401A601A6802431A607047C04638
:1030540040280040FFFF7FFC044B05491A680A40E2
:103064001A601A6802431A607047C046402800403C
:10307400FFFFC7FFCA230A4A10B50A491360773B0A
:103084001360094B0C6803402343E0240B60074B97
:10309400A4051968204008431860FF23136010BD7D
:1030A4002428004008280040FFFFFFC740280040B4
:1030B400CA220A4B10B51A60094C773A1A600949BA
:1030C400226801408A4308492260084C0A6820406B
:1030D40082430A60FF221A6010BDC04624280040C3
:1030E40008280040FBFFFFC74028004004000038C8
:1030F400034B1B681840431E9841C0B27047C0463A
:103104000C280040024A1368834313607047C0468A
:103114000C280040044A13685B005B0813601368C2
:10312400034313607047C04608280040CA2370B5A3
:103134000B4C0C4A2360773B236013680A4D0B4EFB
:103144002B4013600A4B1D6835401D60156805430C
:1031540015601A680A431A60FF23236070BDC046D5
:103164002428004008280040FFFF8FFFFFFFFBFFDB
:1031740040280040CA23084A10B51360773B136007
:10318400064B074C196821401960196801431960FE
:10319400FF23136010BDC0462428004008280040C7
:1031A400FFFF77FFCA22054B05491A60773A1A6078
:1031B4000A6802430A60FF221A607047242800400C
:1031C40008280040CA2370B50F4C02002360773BE7
:1031D4002360082641F200030C4D2868013B30406F
:1031E4000BB10028F9D11025094B1B682B40034370
:1031F400002033B94904074B490C11431960FFF708
:1032040059FCFF23236070BD242800400C28004093
:10321400082800402C280040CA22064B06491A60A0
:10322400773A1A600868333A02430A60FF221A6048
:103234007047C0462428004008280040CA22DF20E6
:10324400054B06491A60773A1A600A6802400A6018
:10325400FF221A607047C046242800400828004016
:10326400CA2370B5094D2B60773B2B60FFF7FCFB3D
:10327400040030B11023064A11680B431360FFF7B2
:1032840011FCFF2320002B6070BDC04624280040A1
:1032940008280040CA2370B5094D2B60773B2B608A
:1032A400FFF7E2FB040030B11021064A13688B4398
:1032B4001360FFF7F7FBFF2320002B6070BDC046AF
:1032C4002428004008280040CA22064B06491A60F8
:1032D400773A1A6040F20042086802430A60FF220B
:1032E4001A607047242800400828004044F2000374
:1032F40013B50193CA2304240B4A0C491360773B8A
:1033040013600B680A4803400B600A490868019B74
:103314002040013B019313B10028F7D00420FF2380
:103324004007C00F136016BD242800400828004041
:10333400FFFBFFFF0C28004037B544F20002019266
:10334400CA22030004250E490E4C0A60773A0A602B
:10335400226801982A400138019058B1002AF7D018
:103364000724094A1068A0431060106803431360DF
:10337400012001E0002AF3D1FF230B603EBDC046CB
:10338400242800400C2800400828004044F2000390
:1033940037B50193CA23010004250B4A0B4C136073
:1033A400773B1360236801982B400138019028B1C2
:1033B400002BF7D0064B0120196001E0002BF9D156
:1033C400FF2313603EBDC046242800400C28004063
:1033D40014280040014B186880B27047142800403C
:1033E4008023F7B50400CA2080279B0501930D4B69
:1033F4000D4E1860773818607F02356801983D409B
:103404000138019048B1002DF7D1D205D00D084301
:10341400064A20431060012001E0002DF5D0FF2270
:103424001A60FEBD242800400C2800403C280040BF
:103434008023034ADB0511680B4313607047C046C1
:1034440008280040024A034913680B401360704780
:1034540008280040FFFFFFBF10B540F21C4000F0F9
:1034640027FA40F21C4000F027FA10BD102210B5D4
:10347400E024074B1968914319601968A143196046
:1034840019680143196019680A431A6010BDC046DF
:10349400007000401021024A13688B431360704788
:1034A40000700040044B05491A680A401A601A6803
:1034B40002431A607047C04600700040FF3FFFFFA0
:1034C40041F20003024A11680B4313607047C0467F
:1034D40000700040024A034913680B4013607047B0
:1034E40000700040FFEFFFFF044B05491A680A40D3
:1034F4001A601A6802431A607047C04600700040A0
:10350400FFDFFFFF40F60003024A11680B4313601C
:103514007047C04600700040024A034913680B40DC
:103524001360704700700040FFF7FFFF10B50424DC
:103534000B4A1369A34313610A4B0B4C1A682240CC
:103544001A6040F60002904202D11A6810431860D3
:1035540009B930BF10BD40BF20BF20BFFAE7C04645
:1035640000ED00E000700040FCF7FFFF124B30B5A7
:103574001C68124D2C401C6040F20044A04203D150
:1035840012B91C68204318601868024304201A60AA
:103594000B4A14692043106149B930BF04201169F2
:1035A4008143116103211A688A431A6030BD40BF08
:1035B40020BF20BFF2E7C04600700040FCFBFFFFC5
:1035C40000ED00E003230F4A11680B43136004234A
:1035D4001168194311600C4A11690B4313610B4ABA
:1035E4000B4913680B4013600D220A4B52421A60B8
:1035F400094B0A4A1A600122094B52421A6030BF31
:103604007047C0460070004000ED00E010E000E0AC
:103614000400010080E100E084E100E0FFFDFFFF21
:1036240088E100E0024A1368034313607047C04610
:1036340004700040024A1368834313607047C04615
:103644000470004040F20013024A11680B431360F7
:103654007047C04600700040024A034913680B409B
:103664001360704700700040FFFEFFFF024A1368BA
:10367400034313607047C0460870004010B5FFF75D
:10368400F5FF10BD024A034913680B4013607047ED
:1036940008700040FFFFFEFF8023034A5B021168AD
:1036A4000B4313607047C04608700040044B054943
:1036B4001A680A401A601A6802431A607047C046C2
:1036C40008700040FFFFFDFF064B07491A6800041D
:1036D4000A40F8211A601A68490308401043186028
:1036E4007047C04610700040FFFFE0FF074B0849D9
:1036F4001A6840050A401A601A681043802218604C
:10370400196892050A431A607047C0461070004059
:10371400FFFF1FE0024A034913680B401360704720
:1037240010700040FFFFFFDF054B06491A680006D2
:103734000A401A601A68000C104318607047C046AB
:1037440010700040FF00FFFF8023034ADB0511686F
:103754000B4313607047C04610700040024A03498F
:1037640013680B401360704710700040FFFFFFBFE9
:10377400FF21064B1A688A431A601A6802431A60CA
:103784008022196812060A431A60704710700040BC
:10379400024A13685B005B081360704710700040B6
:1037A400002807DA054B1B6818404000431E984167
:1037B400C0B27047024B1B681840F7E70C7000401A
:1037C4000470004002280AD0094B98420BD001280B
:1037D40004D10423074A11680B4313607047054A58
:1037E40008231168F8E70221034A13688B43F4E7BE
:1037F40002000080007000400C7000400123124A57
:1038040011680B431360022311681942FCD0032092
:103814000E4B19688143196011680D48014011600D
:103824001A680C490A401A601A680B490A400F21A9
:103834001A600A4A13688B4313600023084A136012
:10384400084A13607047C04600100240041002404A
:10385400FFFFE2FE0C00FF88FFFF00772C10024000
:103864003010024008100240054B8209D2181F2371
:1038740018401E3B834011680B4313607047C046D9
:10388400001002401F21830908401E398140034A69
:103894009B181A688A431A607047C0460010024099
:1038A40010B5FFF7E1FF10BD10B5FFF7EBFF10BD3A
:1038B40010B5FFF7D9FF10BD10B5FFF7E3FF10BD3A
:1038C4008023034A5B0211680B4313607047C046B0
:1038D40020100240024A034913680B4013607047EA
:1038E40020100240FFFFFEFF802310B50B4A0C4955
:1038F4005B02984207D113681843106003220B68D7
:1039040093430B6010BD03240B68A34303430B6074
:10391400136804490B401360F4E7C0462C100240BE
:1039240004100240FFFFFEFF0C22054B1868054BF4
:10393400104080221B689202134018437047C0460F
:10394400041002402C100240F021034A13688B43F8
:10395400034313607047C04604100240034A0449FD
:1039640013680B40034313607047C04604100240C1
:10397400FFF8FFFF034A044913680B400343136035
:103984007047C04604100240FFC7FFFF1149124AA6
:103994000B6810B513400B60104B114C1A68224091
:1039A4001A600F280FD80C688207120C22430A6091
:1039B4001A6880088007104340F2001218601968E2
:1039C4000A431A6010BD1028FCD11A6805490A4040
:1039D400F7E7C04604100240FF3FFFFF30100240EB
:1039E400FFFEFF3FFFFEFFFF044A10B51368044CBF
:1039F40023400B430343136010BDC0460410024030
:103A0400FFFFFF08054A10B51368054C23401360F7
:103A140013680B430343136010BDC04604100240F7
:103A2400FFFF00FF10B1012809D070470320094BA4
:103A34001A6882431A601A680A431A60F5E7054B4C
:103A440005481A68090402401A601A68114319608B
:103A5400EBE7C04630100240FFFFFCFF01280BD00B
:103A6400022813D038B90D4B0C301A6882431A60FF
:103A74001A680A431A6070473020084B89001A6894
:103A840082431A601A6811431960F4E7C020034B9B
:103A940009011A6882431A601A68F4E73010024078
:103AA400044B05491A680A401A601A6802431A60EE
:103AB4007047C04630100240FFF9FFFF044B054930
:103AC4001A680A401A601A6802431A607047C046AE
:103AD40030100240FFE7FFFF044B05491A680A4013
:103AE4001A601A6802431A607047C04630100240D8
:103AF400FFFFE3FF044B05491A680A401A601A687D
:103B040002431A607047C04630100240FFDFFFFFD7
:103B1400044B05491A680A401A601A6802431A607D
:103B24007047C04620100240FFFCFFFF0F21034AEC
:103B340013688B43034313607047C0462C10024044
:103B44001821044B1A688A431A601A6802431A60DF
:103B54007047C046201002400721044B1A688A436C
:103B64001A601A6802431A607047C0462C1102405A
:103B740010B5FFF779FE10BD10B5FFF783FE10BD39
:103B8400102804D040F6000398420BD07047094B2C
:103B9400094819681A6802401A608022D2020A434E
:103BA4001A60F3E70120054B19681A6882431A600A
:103BB4000422F4E700100240FFFFFEFF2010024041
:103BC400102804D040F6000398420AD07047094BED
:103BD40009481A6819680140196008490A401A60BE
:103BE400F4E70120064B1A6819688143196004211F
:103BF4008A43F4E700100240FFFFFEFFFFFFFBFFD4
:103C040020100240F821034AC00013688B43184374
:103C140010607047001002408023034A1B031168A0
:103C24000B4313607047C04600100240024A034928
:103C340013680B401360704700100240FFFFF7FF4A
:103C44008023034ADB0311680B4313607047C046AB
:103C540000100240024A034913680B401360704786
:103C640000100240FFFFBFFF044B1A6800221A60D5
:103C74001968034A0A431A607047C046001102409B
:103C84004D3C2B1AF0B5A44F8BB006AE3900102270
:103C940010370400300008F0D3FC390008226846CD
:103CA40008F0CEFC3900082202A808F0C9FC39004B
:103CB4000427082204A808F0C3FC984A984910680D
:103CC4000B680007DB0B800F3B40184301386D463F
:103CD400032803D808F060FA48292426914B116878
:103CE40017680906090F715C1E00CE40116802A80E
:103CF4008904490F415C3000C84001000B2C00D9F5
:103D0400F9E0200008F052FA4B0036003200FF00C0
:103D140038007D00DB00EE00F9009700B100C4001C
:103D2400814BDCE747F60053D9E7402713681B02B1
:103D3400980E13685B0D3B4003439F1C0E2B00D968
:103D44005F1C0F231068096880031940800F01313C
:103D540020B9744BB3FBF1F37B43C0E7012801D1D5
:103D6400724BF7E7704BF5E7704BB8E77F057F0FB1
:103D7400EB5DDE40330012E06D4C2368DB0500D4BC
:103D8400BFE0032310682268800B1840920F0228BA
:103D940021D098422AD0012811D01AB94B08180012
:103DA4000BB0F0BD012A03D10A23B1FBF3F3F6E70C
:103DB400022A02D1B6FBF3F3F1E70B23FAE78B08EF
:103DC400002AECD0012A01D10C23EEE70523022AB4
:103DD400F0D00D23EEE70623002AE6D00E23012AB5
:103DE400E3D00723022AE5D00F23E3E7CB08002A18
:103DF400D5D00B09012AD2D00923022ADAD0112303
:103E0400D8E703244A48026822427CD00268224050
:103E1400012AC4D003682340022B79D0026800230E
:103E24002240A242BBD10368DB025B0F04AAD25C2E
:103E34003C4BD340B3E7C0213D4A89021068084295
:103E440000D193E78024106864020840A042A6D001
:103E54008020136880020B40834259D010680840C8
:103E6400002381429BD11368DEE741F60001304A0A
:103E74001068084200D179E740F600041068084051
:103E8400A04200D18BE7136841F200000B40E3E746
:103E940040F20060264A0B001468044200D17EE719
:103EA40040F20021136803408B422ED040F20041BF
:103EB400136803408B422BD011680140D0E70C20DB
:103EC4001B490A68024200D150E70A680240042AEA
:103ED40000D164E70A6800230240082A00D05EE7A4
:103EE4000B68A1E7124B1A6830231A4200D13DE750
:103EF4000F4B1A681B68002351E70D4B1A68C02347
:103F0400F3E7094B4BE70B0049E747F6005346E755
:103F140048F2000343E7C046569B010804100240E0
:103F24002C1002400024F400006CDC0200127A0021
:103F340030100240054A83099B181F221B68104059
:103F4400C3401800012318407047C04600100240C7
:103F540010B518284AD007D8102819D014283BD0F7
:103F640000282ED0002010BD40F6000398421CD03B
:103F74000133FF339842F5D1214C40F60110FFF78D
:103F8400D9FF10B9013C002CF7D140F6011009E02B
:103F94004FF6FF741120FFF7CDFF10B9013C002C40
:103FA400F8D11120FFF7C6FFDDE7164C40F60100FB
:103FB400FFF7C0FF10B9013C002CF7D140F6010017
:103FC400F0E740F200540120FFF7B4FF10B9013CC0
:103FD400002CF8D10120E5E7094C1520FFF7AAFFD2
:103FE40010B9013C002CF8D11520DBE7044C192052
:103FF400FFF7A0FF10B9013C002CF8D11920D1E73C
:10400400FFFF0F00FFFFFF038023034A5B041168D7
:104014000B4313607047C0462410024010B5FFF7ED
:1040240023FC10BD10B5FFF72DFC10BD10B5FFF734
:1040340081FF10BD10B5FFF717FC10BD164B10B56E
:10404400984221D006D8154B98420FD0144B984271
:1040540013D010BD134B9842FBD140F20E30FFF742
:1040640027FC40F20E30FFF727FCF2E740F2114044
:10407400FFF71EFC40F21140F5E740F21340FFF752
:1040840017FC40F21340EEE740F21440FFF710FC37
:1040940040F21440E7E7C0460050004000440040AE
:1040A400004C004000380140174B70B504000D006F
:1040B400984207D008D8154B98421CD0144B0020C6
:1040C4009C4208D1022004E0124B00209C4202D101
:1040D4000530FFF7D7FD22686B0812040DD54100A7
:1040E400C918B1FBF5F14FF6F0720B075B0F1140E5
:1040F4000B43E36070BD0920EBE7C018B0FBF5F19A
:1041040089B2E160F6E7C046005000400044004038
:10411400004C0040003801400122036893430360CF
:104124000368034A1340036003680B43036070474A
:10413400FFF9FFFF01220368934303600368034A06
:104144001340036003680B4303607047FFEFFFFFF6
:1041540001220368934303604368034A13404360A6
:1041640043680B4343607047FFCFFFFF012302689E
:10417400134303607047012203689343036070474D
:10418400082203689343036003680B43036070478A
:10419400042203689343036003680B43036070477E
:1041A40001220368934303604368054A1340802255
:1041B4004360436812031140194341607047C0468D
:1041C400FFFFF7FF0300080001211A6800B58A43C6
:1041D4001A6007280AD807F0DFFF040A0E1215191F
:1041E4001C2080225968D2020A435A6000BD5A68D2
:1041F4000B490A40F9E7802259689202F4E75A68A9
:104204000849F6E7802259685202EDE75A680649E0
:10421400EFE748F200025968E6E75A680349E8E71D
:10422400FFFFFBFFFFFFFDFFFFFFFEFFFF7FFFFF21
:1042340001220368934303608368024A1340836046
:104244007047C046FFEFFFFF0122036893430360FA
:1042540041F20003826813438360704701220368BC
:10426400934303600368034A1340036003680B43EA
:1042740003607047FF7FFFFF0122036893430360DD
:104284008368034A1340836083680B4383607047E9
:10429400FFF7FFFF802342681B041343436070470A
:1042A4004368024A134043607047C046FFFF7FFFE4
:1042B40043691B0E1B06436143690B43436170470B
:1042C400C905C90D81627047406AC005C00D7047B9
:1042D40083690B4383617047012203680906934392
:1042E400036043681B021B0A43604368194341602F
:1042F4007047012203689343036043680F3293437A
:1043040043604368114019434160704742F200031F
:1043140002681343036070470368024A1340036052
:104324007047C046FFDFFFFF012203689343036029
:104334000368034A1340036003680B430360704738
:10434400FFF7FFFF012203689343036044F2000375
:104354004268134343607047012203689343036038
:104364004368024A134043607047C046FFBFFFFFE3
:10437400012203689343036043681F3293434360FD
:104384004368114019434160704701220368934315
:104394000360082382681343836070470122036823
:1043A4009343036083680732934383607047012219
:1043B40003689343036040F6000342681343436079
:1043C400704701220368934303604368014A134022
:1043D40043607047FFF7FFFF30B501250468AC4325
:1043E400046044680A4D2C4040F20015446044685F
:1043F4002940214340F200244160416822400A439D
:1044040040F20041426042680B401343436030BDB8
:10441400FFF8FFFF01220368090693430360036961
:10442400034A090C1340036103691943016170478E
:10443400FF00FFFF01220368934303602023826887
:1044440013438360704701220368934303608368C6
:104454001F329343836070470122036893430360D0
:1044640010238268134383607047012203689343D7
:10447400036083680F329343836070470123D03015
:1044840002681343036070470122D03003689343EA
:1044940003607047012203684904934303608368FF
:1044A400044A1340E02283608368120311401943D5
:1044B40081607047FFFFF1FF436909061B021B0A75
:1044C400436143691943416170470122036893437F
:1044D40003600223826813438360704701220368E8
:1044E4009343036083689218934383607047012267
:1044F4000368934303600369FE32934303610369D2
:104504000B4303617047012203689343036083688C
:104514000332934383608368114019438160704779
:1045240001220368934303608368034A1340836052
:1045340083680B4383607047FFFEFFFF012203681B
:10454400934303608368034A1340836083680B4387
:1045540083607047FFFDFFFF0122C03003681140F4
:1045640093430360036819430160704701220368A1
:104574009343036044F200038268134383607047EB
:1045840001220368934303608368024A13408360F3
:104594007047C046FFBFFFFF0122036849059343EC
:1045A40003600368044A1340F8220360036892041A
:1045B4001140194301607047FFFF1FFC012203688B
:1045C4000904934303600368044A1340F822036018
:1045D400036852031140194301607047FFFFE0FF75
:1045E40001220368934303608368054A134048F239
:1045F4000002836083681140194381607047C0469C
:10460400FF7FFFFF402283689343836083680B43EB
:1046140083607047802283689343836083680B437D
:1046240083607047012203689343036042F20003EE
:1046340082681343836070470122036893430360D5
:104644008368024A134083607047C046FFDFFFFF60
:1046540002230268134303607047022203689343F2
:104664000360704701220368934303608368054A2B
:104674001340C02283608368920311401943816010
:104684007047C046FFFFCFFF40F20013D0300268EE
:10469400134303607047D0300368024A1340036039
:1046A4007047C046FFFEFFFFD03000684004400F53
:1046B40070478B091B1818681F231940C8401E3BFC
:1046C400184070471F2319401E3B8B40026A134356
:1046D400036270478B0918181F2319401E3B8B4037
:1046E40002681343036070471F228B0911401E3A6E
:1046F4008A40181803689343036070470B049B0DAA
:104704008A0D12181B1870B51B68166801221F2425
:104714001500080C2040854000202E4206D0214080
:104724008A4013401800431E9841C0B270BD084B24
:10473400994205D1D0300368064A1340036070479C
:104744000123C902C90E8B40026A13430362F6E7D0
:1047540009340F34FF7FFFFF30B5FF240322230009
:104764000240D200934089012140DB43914000285C
:1047740012DB40F200350E4C820892001219545993
:1047840023400B431F215351012201408A40430916
:1047940007499B005A5030BD0F2210400838054A83
:1047A400800880008018C26913400B43C361F2E79C
:1047B40000E100E000ED00E000280CDB1F224309CB
:1047C40010401E3A8240044920339B005A50BFF3E4
:1047D4004F8FBFF36F8F704700E100E0BFF34F8F3F
:1047E400034B044ADA60BFF34F8FC046FDE7C0466F
:1047F40000ED00E00400FA05034B1940034B0143AC
:104804009960BFF34F8F704780FFFF1F00ED00E0FA
:10481400024B1A69104318617047C04600ED00E06E
:10482400024A1369834313617047C04600ED00E0F8
:10483400054B1A68042802D11043186070470421FC
:104844008A431A60FAE7C04610E000E00023054AF4
:104854001360054A1360054A1360054A1360054A4C
:10486400136070470004014004040140080401403F
:104874000C04014010040140F7B5194E194D33687A
:104884000191834333602B68174C83432B60236867
:10489400C74383432360154B196881431960019909
:1048A40069B101290FD0012A11D0022A15D02AB9E1
:1048B4002268024322601A683A401A60F7BD3168E0
:1048C40001433160EFE7296801432960EBE722687F
:1048D4003A4022601A680243EFE722680243F8E78D
:1048E4000004014004040140080401400C04014098
:1048F400024A1368034313607047C0460004014032
:10490400024A1368834313607047C04600040140A1
:10491400024A1368034313607047C046040401400D
:10492400024A1368834313607047C046040401407D
:10493400024A1368034313607047C04610040140E1
:10494400024A1368834313607047C0461004014051
:10495400034B1B681840431E9841C0B27047C046C1
:1049640014040140014B18607047C0461404014010
:1049740010B5FFF7EDFF10BD014B18607047C0463E
:104984001404014010B50400E4680078A047431EF5
:104994009841C0B210BD10B5040024690078A04746
:1049A400431E9841C0B210BDF7B516006A461D00FB
:1049B4004BBA938040F20013C9B249190400022093
:1049C400994211DCFE3B6D212078276901AAB84782
:1049D4000300012043B92B00207832006F212469A1
:1049E400A047431E9841C0B2FEBDF7B516006A4603
:1049F4001D004BBA938040F20013C9B24919040058
:104A04000220994211DCFE3B6D212078276901AA1E
:104A1400B8470300012043B92B00207832006F21EE
:104A2400E468A047431E9841C0B2FEBD73B56A4610
:104A34000123382105320400FFF7A4FF20B1A36944
:104A440039489847012076BD6A4601232321200076
:104A54000632FFF797FF10B1A3693448F1E76B46BC
:104A6400DD1D2A0001236A212000FFF78BFF10B10E
:104A7400A3692F48E5E701AE3070012332003821E5
:104A84002000FFF788FF10B1A3692A48D9E73070E6
:104A94000123320023212000FFF77DFF10B1A36919
:104AA4002548CEE73F222B78134022002932127882
:104AB400012A0CD10B3213432B702A0001236A21E3
:104AC4002000FFF768FF20B1A3691C48B9E704225E
:104AD400F1E76369322098472200293212782B7853
:104AE400012A1ED1BF3213432B702A0001236A21ED
:104AF4002000FFF750FF0028E6D16A460123382141
:104B040020000532FFF747FF0028BDD16A46012384
:104B1400232120000632FFF73EFF002800D192E750
:104B2400BDE74022DFE7C0461E9C0108499C0108FE
:104B3400759C01089F9C0108CB9C0108F89C010806
:104B4400F0B589B00093012305AD2B800C0016004D
:104B540002232A006B210700FFF71DFF019020B1FB
:104B640001230093009809B0F0BDC8207B699847E1
:104B7400019B2A002B70382101233800FFF70BFF1B
:104B84000028EDD101232A0023213800FFF703FF79
:104B94000028E5D101232A006B213800FFF7FBFE32
:104BA4000028DDD101232A0024213800FFF7F3FE79
:104BB4000028D5D101232A006A213800FFF7EBFE33
:104BC4000028CDD10C232A002B706A2138000B3B1E
:104BD400FFF7E1FE0028C3D17B690F30984740F20C
:104BE400010C63462A002B701A2163463800FFF734
:104BF400D2FE0028B4D1287001232A0019213800DC
:104C0400FFF7C9FE0028ABD1009B03B1E03005AD2E
:104C1400287001232A001B213800FFF7BCFE00285E
:104C24009ED1009A182302B1E0332B702A0001238D
:104C34001C213800FFF7AFFE002800D090E7009B4E
:104C440013B17B69C830984740232A002B706A212E
:104C540038003F3BFFF79FFE002800D080E7782311
:104C64002A002B7023213800773BFFF794FE009035
:104C7400002800D074E732207B699847009B2A0003
:104C84002B70232101233800FFF785FE002800D074
:104C940066E702232A0072213800FFF773FE0090B2
:104CA400002800D05CE70C222B8820605BBA9BB202
:104CB400B3FBF2F3029303006060A06030607060A5
:104CC400B0600193019B029A934277D120688322BA
:104CD400C117030C090419430004002307F0E8FA80
:104CE4000023019A07F0E4FA206060688322C11768
:104CF400030C090419430004002307F0D9FA002324
:104D0400019A07F0D5FA6060A0688322C117030CEA
:104D1400090419430004002307F0CAFA0023019A86
:104D240007F0C6FAA0603168CC17080C23040343CB
:104D34000A04D9174905490D0291002103910298EB
:104D4400039912184B415905D00A0843019AD91204
:104D5400002307F0ADFA73683060DC171A0C1804EE
:104D6400002321041143CC176405620D12184B4132
:104D74005905D00A0843019AD912002307F098FA7A
:104D8400B3687060DC171A0C180400232104114363
:104D9400CC176405620D12184B415905D00A08431B
:104DA400019AD912002307F083FA80235B02C31807
:104DB400002801DD174BC318B360D3E605AD0C23FF
:104DC4002A0074213800FFF7DDFD002800D0C7E673
:104DD40028883368C0BA1B18698833607368C9BAF5
:104DE4005B18AA887360B368D2BA9B18B360E8886A
:104DF4002368C0BA1B18298923606368C9BA5B1881
:104E04006A896360A368D2BA9B18A360019B0133CB
:104E14009BB256E70000FFFF0022030082560020E9
:104E2400824210DC043072B901229A560338002AF7
:104E340009DC04303AB99B7803385BB2002B02DCFE
:104E44005A425341981D7047F0B50400022589B0B9
:104E540060B1030028331D78012D50D101331B7834
:104E6400002633B18369274898470335280009B0E1
:104E7400F0BD40F6F6339F1B102F00DD1027BBB2A8
:104E84000193214B3100F31800932000009ABBB228
:104E9400FFF78AFD18B1A3691C489847E6E731007B
:104EA4002000BBB204AAFFF7A0FD10B1A369184803
:104EB400F3E73A00009804A907F002FB20B1A369C4
:104EC400144898470525D1E7019B9E1940F6F53310
:104ED400B6B29E42CDD9042302AA938025697021DB
:104EE4002078023B03AAA847050020B1A3690A4819
:104EF40098470625BAE7012329342370B6E703252A
:104F0400B4E7C046239D01080C0000203D9D010824
:104F1400599D0108749D0108929D010837B504004C
:104F2400022074B1230028331B780130012B08D1EF
:104F3400230029331D78012D04D00C48A369984718
:104F440004203EBD1423B1FBF3F109BA0191200002
:104F540040F2C431103B01AAFFF726FD0028F0D02F
:104F64000348A36998472800EBE7C046B69D0108AB
:104F74003D9D010873B504000E00022570B10300C5
:104F840028331B780135012B08D1030029331D7800
:104F9400012D05D083690B4898470425280076BD68
:104FA400042340F2C43101AAFFF71FFD18B1A3691D
:104FB40005489847F2E71423019A050012BA5343AF
:104FC4003360EBE7B69D0108599D010837B504002D
:104FD400022074B1230028331B780130012B08D13F
:104FE400230029331D78012D04D00A48A36998476A
:104FF40004203EBD09BA0191042340F2603120002F
:1050040001AAFFF7D1FC0028F3D00348A36998470D
:105014002800EEE7B69D01083D9D010873B5040024
:105024000E00022570B1030028331B780135012BD3
:1050340008D1030029331D78012D05D083690A485E
:1050440098470425280076BD042340F2603101AA64
:10505400FFF7CBFC18B1A36904489847F2E7019B1A
:1050640005001BBA3360EDE7B69D0108599D0108A0
:1050740037B50400022074B1230028331B780130B3
:10508400012B08D1230029331D78012D04D00C48AD
:10509400A369984704203EBD0523B1FBF3F16B4699
:1050A40049BA99802000022340F2581101AAFFF75F
:1050B4007BFC0028EFD00348A36998472800EAE75F
:1050C400B69D01083D9D0108F7B504000E000225B8
:1050D40070B1030028331B780135012B08D103007C
:1050E40029331D78012D05D083690C489847042580
:1050F4002800FEBD01AF02233A0040F25811FFF729
:1051040074FC18B1A36906489847F1E705233A8867
:10511400050052BA53433380EAE7C046B69D0108FE
:10512400599D010837B50400022074B123002833C7
:105134001B780130012B08D1230029331D78012D60
:1051440004D00C48A369984704203EBD0523B1FB55
:10515400F3F16B4649BA99802000022340F25A11B8
:1051640001AAFFF721FC0028EFD00348A369984760
:105174002800EAE7B69D01083D9D0108F7B5040043
:105184000E00022570B1030028331B780135012B72
:1051940008D1030029331D78012D05D083690C48FB
:1051A400984704252800FEBD01AF02233A0040F2CF
:1051B4005A11FFF71AFC18B1A36906489847F1E79A
:1051C40005233A88050052BA53433380EAE7C046C0
:1051D400B69D0108599D010837B504000B00022053
:1051E40074B12200283212780130012A08D1220039
:1051F40029321578012D04D00B48A369984704205F
:105204003EBD4BF20271594309BA0191042340F2A5
:105214005C11200001AAFFF7C7FB0028F0D0034867
:10522400A36998472800EBE7B69D01083D9D010856
:10523400F7B504000F00022570B1030028331B7872
:105244000135012B08D1030029331D78012D05D028
:1052540083690E48984704252800FEBD042340F2C4
:105264005C1101AAFFF7C1FB060018B1A369084845
:105274009847F1E70198350000BA12F0E3F80549C0
:1052840011F010FB10F0ACFE3880E5E7B69D010884
:10529400599D0108D302374737B50400022074B181
:1052A400230028331B780130012B08D12300293334
:1052B4001D78012D04D00C48A369984704203EBDF5
:1052C4000523B1FBF3F16B4649BA99802000022310
:1052D40040F2DA1101AAFFF767FB0028EFD0034878
:1052E400A36998472800EAE7B69D01083D9D010897
:1052F400F7B504000E00022570B1030028331B78B3
:105304000135012B08D1030029331D78012D05D067
:1053140083690C48984704252800FEBD01AF022389
:105324003A0040F2DA11FFF760FB18B1A3690648AE
:105334009847F1E705233A88050052BA534333806E
:10534400EAE7C046B69D0108599D010837B5040037
:10535400022074B1230028331B780130012B08D1BB
:10536400230029331D78012D04D00C48A3699847E4
:1053740004203EBD0523B1FBF3F16B4649BA998085
:105384002000022340F2DE1101AAFFF70DFB0028E2
:10539400EFD00348A36998472800EAE7B69D0108BF
:1053A4003D9D0108F7B504000E00022570B103000D
:1053B40028331B780135012B08D1030029331D78CC
:1053C400012D05D083690C48984704252800FEBDAB
:1053D40001AF02233A0040F2DE11FFF706FB18B1D9
:1053E400A36906489847F1E705233A88050052BAAD
:1053F40053433380EAE7C046B69D0108599D01082E
:1054040037B50400022074B1230028331B7801301F
:10541400012B08D1230029331D78012D04D00F4816
:10542400A369984704203EBD0139C9B2032904D9B0
:105434000B48A36998470520F5E76B462000DA1D61
:1054440011702B0040F24F11FFF7AEFA0028EAD09A
:105454000448A36998472800E5E7C046B69D0108BB
:10546400D39D01083D9D0108F7B504000E000225F7
:1054740070B1030028331B780135012B08D10300D8
:1054840029331D78012D05D083690B4898470425DD
:105494002800FEBD6B46DF1D3A002B0040F24F1181
:1054A400FFF7A3FA18B1A36904489847F0E73B78DB
:1054B400050001333370EBE7B69D0108599D0108DF
:1054C40030B5040085B0022074B1230028331B7862
:1054D4000130012B08D1230029331D78012D05D07B
:1054E4001748A3699847042005B030BD0922A9B123
:1054F400144901A807F0A4F8092340F2B841200098
:1055040001AAFFF751FA20B10F48A3699847280070
:10551400EAE72023A28D1343A385E5E70B4901A8FD
:1055240007F08EF8092340F2B841200001AAFFF7E2
:105534003BFA0028E8D12022A38D9343ECE7C04630
:10554400B69D0108FA9D01083D9D0108049E0108CD
:1055540037B50400022074B1230028331B780130CE
:10556400012B08D1230029331D78012D04D01A48BA
:10557400A369984704203EBDD1B1184B40F6982149
:1055840001932000042301AAFFF70EFA20B1A369B6
:10559400134898472800EEE72000FFF747FA10B1B8
:1055A400A3691048F5E70423A28D1343A385E2E71A
:1055B4000D4B40F6982101932000042301AAFFF724
:1055C400F3F90028E3D12000FFF730FA0028E7D1EF
:1055D4000422A38D9343E9E7B69D0108C0C2C4C663
:1055E4003D9D01080E9E01088B8B8B8B37B5040003
:1055F400022074B1230028331B780130012B08D119
:10560400230029331D78012D04D01A48A369984733
:1056140004203EBDD1B1184B40F69E2101932000D9
:10562400042301AAFFF7C0F920B1A36913489847DE
:105634002800EEE72000FFF7F9F910B1A36910483C
:10564400F5E71023A28D1343A385E2E70D4B40F643
:105654009E2101932000042301AAFFF7A5F9002845
:10566400E3D12000FFF7E2F90028E7D11022A38D4F
:105674009343E9E7B69D0108202830383D9D010891
:105684000E9E0108A3A3A3A330B5040085B0022095
:1056940074B1230028331B780130012B08D1230077
:1056A40029331D78012D05D00D48A369984704209E
:1056B40005B030BD0B2289B90A4901A806F0C0FF24
:1056C4000B2340F68221200001AAFFF76DF9002880
:1056D400EED00548A36998472800E9E70349ECE7B9
:1056E400B69D01082B9E01083D9D0108379E0108C7
:1056F400F7B50400022074B1230028331B7801306D
:10570400012B08D1230029331D78012D04D02E4804
:10571400A36998470420FEBD638D03261A00324016
:10572400920050585A0700D54042DA08324092009D
:1057340057589A0600D57F421A06920F920056587F
:10574400DB0500D576420023204AC11710F01AFC6D
:105754008900800F084300BA0190042340F2D0313D
:10576400200001AAFFF720F920B11948A36998473E
:105774002800D0E70023154A3800F91710F002FC7E
:105784008900800F084300BA0190042340F2D43109
:10579400200001AAFFF708F90028E6D100230B4AEC
:1057A4003000F11710F0EEFB8900800F084300BAB7
:1057B4000190042340F2D831200001AAFFF7F4F845
:1057C4000028A8D0D1E7C046B69D010809E3CA0263
:1057D4003D9D0108F0B504000E00022087B07CB1A5
:1057E400230028331B780130012B09D123002933EE
:1057F4001B780193012B05D03248A36998470420F4
:1058040007B0F0BD02ABDD1C2A001C212000019B67
:10581400FFF7B8F820B1A3692B4898470198EFE740
:105824002B78DB069B0F032B47D0284A9B009D58FF
:10583400EB170093638D03211A000A4092009059DC
:105844005A0700D54042DA080A40920097599A064E
:1058540000D57F421A06920F92009659DB0500D5B7
:1058640076422A00009BC11710F08CFB8900800F40
:10587400084300BA2A00009B0390F917380010F07F
:1058840081FB8900800F084300BA2A00009B049022
:10589400F117300010F076FB8900800F084300BA3E
:1058A40005900C2340F29421200003AAFFF77CF812
:1058B4000028A5D0A3690648AFE780250090ED0431
:1058C400B8E7C046B69D0108439E0108709B0108D5
:1058D4003D9D0108F0B5514B8BB00693504B04002D
:1058E4000793504B0F0008934F4B06AE09930223C6
:1058F400019388B10300032228331B780192012B02
:105904000AD1030029331B780193012B07D0836943
:10591400464898470423019301980BB0F0BD080052
:10592400FFF77AFA0290F81CFFF776FA0500B81D23
:10593400FFF772FAED00029B800105431D432BB271
:105944000293ABB20325029903932940735C04AF1D
:105954003B70039BDA082A40B35C7B70039B9B0972
:105964002B40F05C9C46B8700C203B18595C3B18EB
:105974009A5C05AE727062463B189B5C3170B370E2
:105984003A002B0040F226412000FFF70DF818B131
:10599400A36927489847BFE72B00320040F22A4109
:1059A4002000FFF701F80028F2D12A00380008A9E6
:1059B40006F046FE04AB9B8A338004AB9B7DB37038
:1059C400029B5B0703D537233B70103B3370029B6C
:1059D4009B0604D5572304AA5370103B5371029BB2
:1059E400DB0504D5772304AA9370103B937103233A
:1059F40040F24041200004AAFEF7D6FF0028C7D198
:105A0400032340F23141200005AAFEF7CDFF002810
:105A1400BED1039B019063857EE7C0464CCD6C00EC
:105A24000CC92C003656760026466600B69D010841
:105A34003D9D0108F0B504000E00022789B070B145
:105A4400030028331B780137012B08D103002933C5
:105A54001F78012F06D08369C74898470427380068
:105A640009B0F0BDC54B05AD05932A000423682198
:105A7400FEF79AFF10B1A369C1486DE073066DD4B7
:105A8400A322100011006A70E97040F28012310004
:105A9400A32311402B70A8700191164262D1190002
:105AA4001A002B71A323EB71B64B6971AA712B8178
:105AB4002A000A2340F6A7212000FEF775FF0028DC
:105AC400D9D1D823B20700D0B83B2B702A000123C8
