:020000040800F2
:108000001004002069810008AD810008A9810008E2
:108010000000000000000000000000000000000060
:10802000000000000000000000000000B181000816
:108030000000000000000000AF8100080B82000873
:108040007B8100087B8100087B8100087B81000820
:108050007B8100087B8100087B8100087B81000810
:108060007B8100087B8100087B8100087B81000800
:108070007B8100087B8100087B8100087B810008F0
:108080007B8100087B8100087B8100087B810008E0
:108090007B8100087B8100087B8100087B810008D0
:1080A0007B8100087B8100087B8100087B810008C0
:1080B0007B8100087B8100087B8100087B810008B0
:1080C0007B8100087B8100087B8100087B810008A0
:1080D0007B8100087B810008000000007B81000894
:1080E0007B8100087B8100087B8100087B81000880
:1080F0000000000000000000000000007B8100087C
:10810000000000000000000000000000000000006F
:108110000000000000000000000000007B8100085B
:108120007B8100087B8100087B8100087B8100083F
:108130007B8100087B8100087B8100087B8100082F
:108140007B8100087B8100087B8100087B8100081F
:108150007B8100080348854600F014F8004800477A
:10816000E3850008100400200448804704480047C5
:10817000FEE7FEE7FEE7FEE7FEE7FEE71782000800
:1081800055810008064C0125064E05E0E36807CC42
:108190002B430C3C98471034B442F7D3FFF7DEFF73
:1081A000F087000810880008FFE7FEE77047704777
:1081B000704780B584B002900298401E000E0028DF
:1081C00003D0FFE7012003901CE00298401E4EF20E
:1081D0001401CEF2000108600020C1430322019087
:1081E0000846114600F062F84EF21800CEF2000088
:1081F000019901604EF21000CEF2000007220260E9
:108200000391FFE7039804B080BD80B500F0BEF98C
:1082100000F0A5F880BD80B541F20000C4F2020074
:108220000168012211430160FFE741F20000C4F23E
:10823000020000688007002801D4FFE7F5E741F25B
:108240000400C4F20200016803229143016041F27C
:108250000001C4F202010A684FF6FF73CFF6F26321
:108260001A400A60016840F20C02C8F6FF02114091
:10827000016001684FF6FF72C7F2007211400160A1
:1082800041F22C00C4F2020001680F229143016008
:1082900041F23000C4F202000021016041F2080006
:1082A000C4F20200016000F061FA80BD70B582B0D6
:1082B000024601AB18700091187840B200281AD419
:1082C000FFE701A8017849B20322D24311404EF2E0
:1082D0000043CEF20003C958007840B28407E40E90
:1082E000FF25A540A943009DAD01EDB2A54029435E
:1082F0001040C1501DE001A801780F22114008393B
:108300000323DB4319404EF61C54CEF200040959F6
:10831000007840B28507ED0EFF26AE40B143009EC7
:10832000B601F6B2AE403143104008381840015152
:10833000FFE702B070BD81B00090009840F20801E4
:10834000C2F200010860FFE740F20800C2F200003C
:108350000068002801D0FFE7F6E701B0704740F25F
:108360000800C2F200000068002808D0FFE740F2D1
:108370000800C2F200000168491E0160FFE7704773
:10838000B0B588B0014607AA10701078400048F2D6
:10839000C873C0F60003185A0691059200F03FF921
:1083A00005980178890048F2E072C0F60002505842
:1083B00048F2D073C0F600035958012400250491F7
:1083C000214603922A46049C02932346019500F01D
:1083D0004EF8059801788900039A5058029B5B5823
:1083E0000322019900F08BF8059801788900029A20
:1083F0005358039C61588B6208B0B0BD81B00146F0
:108400006A4610701078800048F2D072C0F6000200
:10841000125848F2E073C0F600031858826201B0A7
:10842000704781B001466A4610701078800048F2AB
:10843000D072C0F60002125848F2E073C0F6000392
:108440001858826101B0704781B001466A461070C9
:108450001078800048F2D072C0F60002125848F23C
:10846000E073C0F600031858C26201B0704787B0CD
:10847000069005910492039306980068019006986F
:10848000C068009002A800210180FFE702A80088D0
:108490000F282CD8FFE702A800880399C140C8071D
:1084A00000281ED0FFE702A80188490003221346D6
:1084B0008B40019999430191059903885B0099408C
:1084C000019B0B430193018849008A400099914325
:1084D0000091049900884000814000980843009072
:1084E000FFE7FFE70298401C02A90880CEE7019849
:1084F0000699086000980699C86007B0704710B5E3
:1085000086B00C46059004A801700392029300788F
:10851000012806D1FFE7029805994A6802434A609C
:1085200005E0029805994A6882434A60FFE705988A
:108530008068009001A800210180FFE701A8008861
:108540000F281ED8FFE701A800880299C140C8077C
:10855000002810D0FFE701A80188490003228A40C3
:108560000099914300910399008840008140009850
:1085700008430090FFE7FFE70198401C01A908802D
:10858000DCE700980599886006B010BD80B540F220
:108590000C00C2F200000068002819D0FFE740F28A
:1085A0000C00C2F20000006880087C2804D8FFE7B5
:1085B0000020FFF736FF03E00020FFF71FFFFFE773
:1085C00040F20C00C2F200000168491E016007E0A1
:1085D00040F20C00C2F2000040F2E8310160FFE717
:1085E00080BD80B582B0002001904EF60851CEF2D9
:1085F000000148F20002C0F600020A60009000F09C
:10860000B9F80098FFF7BCFE0120FFF7B9FEFFE7BD
:108610003220FFF790FE0120FFF716FFF8E710B5B4
:1086200081B001466A46108010881F22034613401D
:1086300001229A40800941F20003C4F20203C458A7
:108640001443C45001B010BD10B583B00020029097
:10865000019041F20000C4F20200016801221204FC
:1086600011430160FFE70298401C029041F20000B4
:10867000C4F2020000680121490408400190FFE7AC
:10868000019800210028009108D1FFE702984FF6D9
:10869000FF71401A411E88410090FFE70098C00713
:1086A0000028E0D1FFE741F20000C4F202000068B8
:1086B0008003002802D4FFE7FFE7FEE742F2000054
:1086C000C4F20200016801221143062399430160AC
:1086D00041F20400C4F20200016801600168016017
:1086E000016840F200431943016041F22C01C4F2D9
:1086F00002010B680F24A3430B6001684FF6FF7360
:10870000C7F6007319400160016819231B0419435F
:10871000016041F20000C4F2020001681206114338
:108720000160FFE741F20000C4F20200006880012E
:10873000002801D4FFE7F5E741F20400C4F202008B
:108740000168032291430160016802221143016024
:10875000FFE741F20400C4F2020000680C21084067
:10876000082801D0FFE7F4E703B010BD80B5FFF79C
:108770006BFF80BD80B582B040F20000C2F2000005
:10878000006840F2E831B0FBF1F0FFF712FD00287D
:1087900002D0FFE7FFE7FEE70020C1430190084653
:1087A0000199FFF783FD02B080BD02E008C8121FE7
:1087B00008C1002AFAD170477047002001E001C1CA
:1087C000121F002AFBD1704713051305130513056B
:1087D000800000000001000000020000000800000E
:1087E0000008004800080048000800480008004849
:1087F000108800080000002008000000AA87000878
:10880000188800080800002008040000BA87000843
:088810000090D00300000000FD
:040000050800815519
:00000001FF
