:020000040800F2
:1000000000500020E91900083D0B0008410B0008D2
:10001000450B0008490B00084D0B000800000000CC
:10002000000000000000000000000000311A00087D
:10003000311A000800000000311A0008210B0008E6
:10004000311A0008311A0008311A0008311A000864
:10005000311A0008311A0008311A0008250B00086F
:10006000311A0008311A0008311A0008311A000844
:10007000311A0008311A0008311A0008311A000834
:10008000311A0008311A0008311A0008311A000824
:10009000311A0008311A0008311A0008311A000814
:1000A000311A0008311A0008311A0008311A000804
:1000B000311A0008311A0008311A0008311A0008F4
:1000C000311A0008311A0008311A0008311A0008E4
:1000D000311A0008311A0008311A0008311A0008D4
:1000E000311A0008311A0008311A00080000000017
:1000F0000000000000000000000000000000000000
:0C01000000000000000000005FF808F1A3
:10011000024610B578B1D178937800884B404340BF
:1001200083EA10231029D8B228BF102100230332FC
:10013000DCB2A14200D810BD12F8014F013360407B
:10014000F6E7F8B507460E4615461C46E3B1102AF9
:1001500018D802B1C1B1231D12220021184601F0A6
:10016000EFFC4AF65522A7702280E57025B11EB13A
:100170002A46314600F006FD2046FFF7C9FF2075EC
:100180000020F8BD0320FCE70720FAE7F8B50E468B
:100190001446054640B33AB3042901D80320F8BDFC
:1001A00016220021204601F0CBFC45F2AA532A88F2
:1001B0009A421BD14AF655232380AB78A370EA7884
:1001C000102AE270EAD8171DB742E7DA1AB1291DE2
:1001D000201D00F0D7FCED5D20462575FFF798FF48
:1001E000281A18BF0120DAE70720D8E70120D6E750
:1001F000112802460ED8112825D8DFE800F009267C
:100200001C1E2424242424242424242424242022C2
:100210001148704730281AD007D8202819D00F4B22
:100220000F48212A18BF184670470C4B0D48FF2A6B
:1002300018BF184670470C4870470C4870470C4868
:1002400070470C487047054870470B4870470B488B
:1002500070470B48704700BF68A6000870A60008EA
:10026000B8A60008DEA600087CA6000887A600083D
:1002700093A60008A1A60008E9A60008CAA60008DF
:10028000A7A6000870477047164B1A6842F48032E0
:100290001A601A689103FCD513490A6842F00202F9
:1002A0000A605A6822F480325A605A6842F4E012B6
:1002B0005A601A6842F080721A601A689201FCD57E
:1002C0005A685A605A6842F480625A605A685A60A2
:1002D0005A6842F002025A605A6802F00C02082A78
:1002E000FAD170470010024000200240024A936990
:1002F00043F01C0393617047001002404FF0E0236D
:10030000044A07215A6100229A611961024B1A605E
:10031000704700BF3F190100DC070020044A116844
:1003200013685B1A834200D3704730BFF8E700BF01
:10033000DC070020014B1868704700BFDC07002075
:10034000034B044ADA60BFF34F8F30BFFDE700BFB5
:1003500000ED00E00400FA05024A1368013313605F
:10036000704700BFDC07002070B50546FFF7E2FFCD
:100370000446074EFFF7DEFF031B632B01D9052060
:1003800070BDB38A9BB235EA0303F3D10020F7E7CF
:1003900000540040184B00209A6942F008029A610C
:1003A000DA6942F40012DA61144A116821F07061CE
:1003B0001160116841F030611160116821F07041E5
:1003C0001160116841F0304111601A6942F4001265
:1003D0001A611A6922F400121A612422A3F5DE338D
:1003E0009A80B4229A8325221A841A8892B242F003
:1003F00001021A80704700BF00100240000C01404B
:100400002DE9F74F884691461F460646002800F022
:10041000A380002900F0A08000244FF0600ADFF8DC
:100420003CB1BBF8003001209BB243F48073ABF8C1
:100430000030FFF799FF28B10134E4B2022CF0D963
:10044000052561E00220ABF810A0FFF78DFF38B161
:10045000BBF800309BB243F40073ABF80030EBE71D
:100460003546BBF8183008EB060380200093FFF7F1
:100470007BFF009B98B1BBF800309BB243F4007344
:10048000ABF80030BBF8003005209BB243F400739A
:100490000134ABF80030E4B2FFF740FFCCE715F8C9
:1004A000012B9D42ABF81020DFD10420FFF75CFF49
:1004B00005460028CCD1B9F1000F46D0002F44D01A
:1004C0003B78002B41D0BBF8003001209BB243F4B5
:1004D0008073ABF80030FFF747FF0028ACD16123F1
:1004E0000220ABF81030FFF73FFF0028B0D12946BB
:1004F000BBF81830194B3878CAB2904208D81A881D
:1005000092B242F480621A80284603B0BDE8F08FB0
:10051000013890420AD1188820F480600004000C51
:100520001880188880B240F4007018804020CDE90F
:100530000012FFF719FF0099019A084B01310028BA
:10054000A0D1188A09F80200D5E7044A13889BB2A3
:1005500043F400731380D7E70725D5E70054004024
:1005600000231A46FFF74CBF70B50E4605468EB005
:1005700058B351B30388C4785BBAADF808304388E8
:10058000ADF80A30FCB12246011D03A800F0FAFACA
:100590000434E4B22A7D152504F138036B44013498
:1005A00003F8302CE1B20DF1070308AA02A88DF878
:1005B0000750FFF725FF20B93246294608A8FFF764
:1005C000E5FD0EB070BD0424E4E70720F9E710B59F
:1005D00004468CB0C0B100226B4611460220FFF7E2
:1005E000B0FD034668B9684606A9FFF7BDFF03469C
:1005F00038B99DF81A20032A08D107AA03CA206037
:10060000616018460CB010BD0723FAE70223F8E733
:10061000002200B589B01146112002ABFFF791FD11
:1006200080B9BDF8083005215BBAADF80030BDF8DF
:100630000A306846ADF802309DF81C308DF8043061
:10064000FFF78EFF09B05DF804FB00BF01220A4BE3
:100650005A6102225A61094A90811189890706D597
:1006600006490A89120604D401221A61704700BFA4
:10067000F3E700BFF5E700BF00080140003001408C
:1006800001220A4B5A6102221A61094A908111899A
:10069000890706D506490A89120604D401221A617F
:1006A000704700BFF3E700BFF5E700BF0008014057
:1006B0000030014010B54FF480620021064801F07F
:1006C0003FFA4FF48064013C0020A4B2FFF7D8FF4A
:1006D000002CF8D110BD00BFE0070020404A38B51B
:1006E0009369404C43F4805343F0040393612368BF
:1006F000102523F0704323F4700323602368A2F5D0
:10070000604243F0304343F43003236023680A20FF
:1007100023F4702323F0FF032360236843F4403362
:1007200043F033032360112323614FF44773138095
:1007300013889BB243F0400313806561FFF7EEFD21
:100740000A202561FFF7EAFDAE20FFF77FFFD520E5
:10075000FFF77CFF8020FFF779FFA820FFF776FFE7
:100760003F20FFF773FFD320FFF770FF0020FFF754
:100770006DFF4020FFF76AFF8D20FFF767FF142011
:10078000FFF764FF2020FFF761FF0020FFF75EFF07
:10079000A120FFF75BFFC820FFF758FFDA20FFF723
:1007A00055FF1220FFF752FF8120FFF74FFFCF20A8
:1007B000FFF74CFFD920FFF749FFF120FFF746FF75
:1007C000DB20FFF743FF4020FFF740FFA620FFF7A5
:1007D0003DFFAF20FFF73AFFBDE83840FFF76ABFA3
:1007E000001002400008014070472DE9F0410A2640
:1007F000044688B08846174600214FF480621F489F
:100800001D4601F09DF994FBF6F306FB13440534F5
:1008100024B294FBF6F41621194A009402A801F0C0
:1008200049F943461621174A02A801F043F93B460D
:100830001621154A02A801F03DF94FF47A72B5FB72
:10084000F2F302FB1355ADB2B5FBF6F59DF8381087
:10085000009501910D4A162102A801F02BF94FF4E1
:100860008064064D013C15F8010BA4B2FFF708FFA8
:10087000002CF7D108B0BDE8F08100BFE0070020F0
:10088000EEA60008FCA6000807A7000812A70008AB
:1008900038B54FF480620021074801F051F94FF458
:1008A0008064054D013C15F8010BA4B2FFF7E8FE8A
:1008B000002CF7D138BD00BFE007002038B54FF459
:1008C00080620021074801F03BF94FF48064054D38
:1008D000013C15F8010BA4B2FFF7D2FE002CF7D1B2
:1008E00038BD00BFE0070020AE20AFE6164B9A6986
:1008F00042F008029A61DA6942F00202DA61A3F575
:1009000082331A6822F00F021A601A6842F00B0252
:100910001A604722A3F584331A8540F2E7329A859C
:100920004FF4FA729A879A8B92B242F060029A83DD
:100930001A8C92B242F480721A841A8822F0010250
:100940001204120C1A80704700100240074A1388E4
:1009500030B19BB243F001031380054B1870704710
:1009600023F001031B041B0CF6E700BF000400404A
:10097000E00B0020022810B50DD003281BD0012861
:1009800018D1FFF7E3FF6420FFF7C8FC0020BDE8A3
:100990001040FFF7DBBF03240120FFF7D7FFC8207B
:1009A000FFF7BCFC0020FFF7D1FF9620FFF7B6FC55
:1009B000013CF1D110BD0120E9E70020FFF7C6BFDF
:1009C000014B1878704700BFE00B002010B5034CB6
:1009D0002070FFF7AFFC606010BD00BFE40B00208B
:1009E00008B5FFF7A7FC054B5B68C01A40F6B833A3
:1009F000984294BF0020012008BD00BFE40B0020F6
:100A00000022034B0120C3E903221A725A61DDE779
:100A1000E40B002013B5FFF78DFCB0F5FA7F02D987
:100A20000620FFF7D3FF354C2378072B63D8DFE888
:100A300003F004090D1C2E49525CFFF7E1FF012071
:100A400002B010BD0220FFF7C1FFF8E72C48FFF706
:100A5000BEFD20B9237B022B05D90420F3E7FFF765
:100A6000BFFF0028EBD00320EDE70020FFF7BCFE1E
:100A7000237B622100934FF4B470E3892269FFF76E
:100A8000B4FEFFF7ADFF0028D9D00620DBE7012038
:100A9000FFF7AAFEE28A217B607BFFF7F9FE0220C6
:100AA000FFF768FF237A33B100232372FFF785FF36
:100AB0000520FFF78BFFFFF793FF0028BFD0FFF75C
:100AC0007CFFE2E7FFF779FFFFF7F8FE4FF4FA70DB
:100AD000FFF724FCD9E7FFF7F1FEFFF799FD10B906
:100AE0000720FFF773FF0720ADE7FFF7FDFEFFF7D5
:100AF00064FF30BFFDE70020A5E700BFE40B002046
:100B0000F00B0020014B1878704700BFE40B002069
:100B100010B10122014B1A72704700BFE40B002094
:100B2000FFF71ABC044B5A69920704D50222012030
:100B30005A61FFF7EDBF70470004014000BFFDE7B9
:100B4000FFF7FEBB00BFFDE700BFFDE700BFFDE70D
:100B50004FF00062014B9A60704700BF00ED00E06B
:100B6000014B024A1A6070470000002000A24A04AC
:100B70004CAE000800000020DC070020DC0700204D
:100B80005C0F0020844641EA000313F0030349D1BF
:100B9000403A23D30B6803604B6843608B688360E3
:100BA000CB68C3600B6903614B6943618B698361E7
:100BB000CB69C3610B6A03624B6A43628B6A8362CF
:100BC000CB6AC3620B6B03634B6B43638B6B8363B7
:100BD000CB6BC36340304031403ADBD230320BD371
:100BE0000B6803604B6843608B688360CB68C360AD
:100BF00010301031103AF3D20C3205D351F8043BC7
:100C000040F8043B043AF9D2043208D0D2071CBFA2
:100C100011F8013B00F8013B01D30B8803806046CB
:100C2000704700BF082A13D38B07B1D010F003031D
:100C3000AED0C3F10403D21ADB071CBF11F8013B8D
:100C400000F8013BA4D331F8023B20F8023B9FE7B8
:100C5000043AD9D3013A11F8013B00F8013BF9D22B
:100C60000B7803704B7843708B78837060467047C5
:100C700080EA010C1CF0030F37D110F0030C20F0B8
:100C8000030021F0030150F8042B08BF51F8043B86
:100C90000ED08CF0030C6FF07F434FEACC0C23FA9C
:100CA0000CFC51F8043B42EA0C0243EA0C0300BF7F
:100CB000A2F1013C9A4201BF2CEA020C1CF0803FD9
:100CC00050F8042B51F8043BF2D04FEA02604FEA8F
:100CD0001222012828BFB0EB036F08BF1B0AF4D013
:100CE00003F0FF03000EC01A704710F0030F0AD084
:100CF00010F8012B11F8013B012A28BF9A42F4D0C9
:100D0000A2EB030070474DF8045D50F8042B01F08E
:100D1000030521F0030151F8043B022D26D04DD8E4
:100D200022F07F45B5EB132FA2F1013C2CEA020C17
:100D30000DD11CF0803C08BF51F8043B0AD185EA74
:100D40000205B5EB036F0CD150F8042BE8E74FEA2E
:100D500013235BE03CF07F4C54D10B784FEA1265D3
:100D600054E04FEA126503F0FF034FE04FEA0245FB
:100D7000A2F1013C4FEA15452CEA020CB5EB134FEA
:100D800018D11CF0803C08BF51F8043B07D185EA1C
:100D90000205B5EB034F09D150F8042BE6E75FEAF3
:100DA0000C4C2FD10B884FEA12452FE04FEA03433A
:100DB0004FEA12454FEA134328E000BF02F0FF0557
:100DC000B5EB136FA2F1013C2CEA020C0DD11CF023
:100DD000803C08BF51F8043B0AD185EA0205B5EB17
:100DE000032F0AD150F8042BE8E74FEA13630DE014
:100DF00012F0FF0F06D051F8043B4FEA122523F002
:100E00007F4303E04FF0000020BC704705F0FF0275
:100E100003F0FF00012828BF904204BF2D0A1B0ADF
:100E2000F4D0A2EB000020BC704700BF70B54FF0BB
:100E3000FF0C4CF4E06C1CEA11541DBF1CEA135566
:100E400094EA0C0F95EA0C0F00F0DEF82C4481EACE
:100E5000030621EA4C5123EA4C5350EA013518BFEE
:100E600052EA033541F4801143F4801338D0A0FBDB
:100E700002CE4FF00005E1FB02E506F00042E0FB88
:100E800003E54FF00006E1FB03569CF0000F18BF8E
:100E90004EF0010EA4F1FF04B6F5007F64F5407436
:100EA00004D25FEA4E0E6D4146EB060642EAC621C9
:100EB00041EA55514FEAC52040EA5E504FEACE2E36
:100EC000B4F1FD0C88BFBCF5E06F1ED8BEF1004F39
:100ED00008BF5FEA500E50F1000041EB045170BDB5
:100EE00006F0004646EA010140EA020081EA0301F9
:100EF000B4EB5C04C2BFD4EB0C0541EA045170BDF5
:100F000041F480114FF0000E013C00F3AB8014F16E
:100F1000360FDEBF002001F0004170BDC4F10004B7
:100F2000203C35DA0C341BDC04F11404C4F1200538
:100F300000FA05F320FA04F001FA05F240EA020093
:100F400001F0004221F0004110EBD37021FA04F6C9
:100F500042EB06015EEA430E08BF20EAD37070BD83
:100F6000C4F10C04C4F1200500FA04F320FA05F0E2
:100F700001FA04F240EA020001F0004110EBD370E4
:100F800041F100015EEA430E08BF20EAD37070BD54
:100F9000C4F1200500FA05F24EEA020E20FA04F32D
:100FA00001FA05F243EA020321FA04F001F00041DC
:100FB00021FA04F220EA020000EBD3705EEA430E4D
:100FC00008BF20EAD37070BD94F0000F0FD101F07C
:100FD0000046400041EB010111F4801F08BF013CB5
:100FE000F7D041EA060195F0000F18BF704703F0F3
:100FF0000046520043EB030313F4801F08BF013D7A
:10100000F7D043EA0603704794EA0C0F0CEA135535
:1010100018BF95EA0C0F0CD050EA410618BF52EAEF
:101020004306D1D181EA030101F000414FF00000F5
:1010300070BD50EA410606BF1046194652EA430603
:1010400019D094EA0C0F02D150EA013613D195EA77
:101050000C0F05D152EA03361CBF104619460AD1BF
:1010600081EA030101F0004141F0FE4141F47001C9
:101070004FF0000070BD41F0FE4141F4780170BDB9
:1010800081F0004102E000BF83F0004330B54FEA39
:1010900041044FEA430594EA050F08BF90EA020FA6
:1010A0001FBF54EA000C55EA020C7FEA645C7FEA39
:1010B000655C00F0E2804FEA5454D4EB5555B8BF5C
:1010C0006D420CDD2C4480EA020281EA030382EACD
:1010D000000083EA010180EA020281EA0303362D5F
:1010E00088BF30BD11F0004F4FEA01314FF4801C32
:1010F0004CEA113102D0404261EB410113F0004F44
:101100004FEA03334CEA133302D0524263EB4303FA
:1011100094EA050F00F0A780A4F10104D5F1200E98
:101120000DDB02FA0EFC22FA05F2801841F10001F3
:1011300003FA0EF2801843FA05F359410EE0A5F1C7
:1011400020050EF1200E012A03FA0EFC28BF4CF0F8
:10115000020C43FA05F3C01851EBE37101F00045AE
:1011600007D54FF0000EDCF1000C7EEB00006EEBBB
:101170000101B1F5801F1BD3B1F5001F0CD3490845
:101180005FEA30004FEA3C0C04F101044FEA44529C
:1011900012F5800F80F09A80BCF1004F08BF5FEA23
:1011A000500C50F1000041EB045141EA050130BD03
:1011B0005FEA4C0C404141EB0101013C28BFB1F515
:1011C000801FE9D291F0000F04BF01460020B1FA60
:1011D00081F308BF2033A3F10B03B3F120020CDA33
:1011E0000C3208DD02F1140CC2F10C0201FA0CF011
:1011F00021FA02F10CE002F11402D8BFC2F1200C76
:1012000001FA02F120FA0CFCDCBF41EA0C0190402B
:10121000E41AA2BF01EB0451294330BD6FEA040474
:101220001F3C1CDA0C340EDC04F11404C4F120025F
:1012300020FA04F001FA02F340EA030021FA04F371
:1012400045EA030130BDC4F10C04C4F1200220FAC8
:1012500002F001FA04F340EA0300294630BD21FA06
:1012600004F0294630BD94F0000F83F4801306BFCC
:1012700081F480110134013D4EE77FEA645C18BFC0
:101280007FEA655C29D094EA050F08BF90EA020F57
:1012900005D054EA000C04BF1946104630BD91EA4F
:1012A000030F1EBF0021002030BD5FEA545C05D152
:1012B0004000494128BF41F0004130BD14F5800491
:1012C0003CBF01F5801130BD01F0004545F0FE4105
:1012D00041F470014FF0000030BD7FEA645C1ABF3A
:1012E000194610467FEA655C1CBF0B46024650EA71
:1012F000013406BF52EA033591EA030F41F400219D
:1013000030BD00BF90F0000F04BF0021704730B522
:101310004FF4806404F132044FF000054FF00001F7
:1013200050E700BF90F0000F04BF0021704730B5B8
:101330004FF4806404F1320410F0004548BF40428D
:101340004FF000013EE700BF42004FEAE2014FEAE2
:1013500031014FEA02701FBF12F07F4393F07F4FBD
:1013600081F06051704732F07F4208BF704793F0C0
:101370007F4F04BF41F40021704730B54FF46074D3
:1013800001F0004521F000411CE700BF50EA0102D6
:1013900008BF704730B54FF000050AE050EA01027F
:1013A00008BF704730B511F0004502D5404261EBEF
:1013B00041014FF4806404F132045FEA915C3FF430
:1013C000D8AE4FF003025FEADC0C18BF03325FEACD
:1013D000DC0C18BF033202EBDC02C2F1200300FA7E
:1013E00003FC20FA02F001FA03FE40EA0E0021FAA3
:1013F00002F11444BDE600BF70B54FF0FF0C4CF491
:10140000E06C1CEA11541DBF1CEA135594EA0C0F42
:1014100095EA0C0F00F0DEF82C4481EA030621EA7D
:101420004C5123EA4C5350EA013518BF52EA0335B8
:1014300041F4801143F4801338D0A0FB02CE4FF06A
:101440000005E1FB02E506F00042E0FB03E54FF09A
:101450000006E1FB03569CF0000F18BF4EF0010E92
:10146000A4F1FF04B6F5007F64F5407404D25FEA8E
:101470004E0E6D4146EB060642EAC62141EA555141
:101480004FEAC52040EA5E504FEACE2EB4F1FD0C83
:1014900088BFBCF5E06F1ED8BEF1004F08BF5FEA01
:1014A000500E50F1000041EB045170BD06F00046B3
:1014B00046EA010140EA020081EA0301B4EB5C0460
:1014C000C2BFD4EB0C0541EA045170BD41F4801158
:1014D0004FF0000E013C00F3AB8014F1360FDEBF7D
:1014E000002001F0004170BDC4F10004203C35DA59
:1014F0000C341BDC04F11404C4F1200500FA05F3DC
:1015000020FA04F001FA05F240EA020001F000427C
:1015100021F0004110EBD37021FA04F642EB0601F2
:101520005EEA430E08BF20EAD37070BDC4F10C041C
:10153000C4F1200500FA04F320FA05F001FA04F2E0
:1015400040EA020001F0004110EBD37041F10001CC
:101550005EEA430E08BF20EAD37070BDC4F12005D7
:1015600000FA05F24EEA020E20FA04F301FA05F23F
:1015700043EA020321FA04F001F0004121FA04F2E7
:1015800020EA020000EBD3705EEA430E08BF20EAB7
:10159000D37070BD94F0000F0FD101F000464000F1
:1015A00041EB010111F4801F08BF013CF7D041EA73
:1015B000060195F0000F18BF704703F00046520077
:1015C00043EB030313F4801F08BF013DF7D043EA48
:1015D0000603704794EA0C0F0CEA135518BF95EAFE
:1015E0000C0F0CD050EA410618BF52EA4306D1D185
:1015F00081EA030101F000414FF0000070BD50EAA4
:10160000410606BF1046194652EA430619D094EA2D
:101610000C0F02D150EA013613D195EA0C0F05D117
:1016200052EA03361CBF104619460AD181EA03016B
:1016300001F0004141F0FE4141F470014FF0000023
:1016400070BD41F0FE4141F4780170BD70B54FF0BE
:10165000FF0C4CF4E06C1CEA11541DBF1CEA13553E
:1016600094EA0C0F95EA0C0F00F0A7F8A4EB050420
:1016700081EA030E52EA03354FEA013100F0888017
:101680004FEA03334FF0805545EA131343EA1263E0
:101690004FEA022245EA111545EA10654FEA002695
:1016A0000EF000419D4208BF964244F1FD0404F54E
:1016B000407402D25B084FEA3202B61A65EB0305AA
:1016C0005B084FEA32024FF480104FF4002CB6EB67
:1016D000020E75EB030E22BFB61A754640EA0C00E7
:1016E0005B084FEA3202B6EB020E75EB030E22BF27
:1016F000B61A754640EA5C005B084FEA3202B6EB68
:10170000020E75EB030E22BFB61A754640EA9C0026
:101710005B084FEA3202B6EB020E75EB030E22BFF6
:10172000B61A754640EADC0055EA060E18D04FEAB4
:10173000051545EA16754FEA06164FEAC30343EA54
:1017400052734FEAC2025FEA1C1CC0D111F4801F21
:101750000BD141EA00014FF000004FF0004CB6E71A
:1017600011F4801F04BF01430020B4F1FD0C88BFB9
:10177000BCF5E06F3FF6AFAEB5EB030C04BFB6EBC4
:10178000020C5FEA500C50F1000041EB045170BDB7
:101790000EF0004E4EEA113114EB5C04C2BFD4EBE4
:1017A0000C0541EA045170BD41F480114FF0000E68
:1017B000013C90E645EA060E8DE60CEA135594EAE4
:1017C0000C0F08BF95EA0C0F3FF43BAF94EA0C0FE7
:1017D0000AD150EA01347FF434AF95EA0C0F7FF45C
:1017E00025AF104619462CE795EA0C0F06D152EAB0
:1017F00003353FF4FDAE1046194622E750EA410694
:1018000018BF52EA43067FF4C5AE50EA41047FF4A4
:101810000DAF52EA43057FF4EBAE12E74FF0FF3C09
:1018200006E000BF4FF0010C02E000BF4FF0010CDA
:101830004DF804CD4FEA410C7FEA6C5C4FEA430C53
:1018400018BF7FEA6C5C1BD001B050EA410C0CBFA2
:1018500052EA430C91EA030F02BF90EA020F002004
:10186000704710F1000F91EA030F58BF994208BF6B
:1018700090422CBFD8176FEAE37040F00100704728
:101880004FEA410C7FEA6C5C02D150EA013C07D17F
:101890004FEA430C7FEA6C5CD6D152EA033CD3D0CA
:1018A0005DF8040B704700BF8446104662468C46C4
:1018B0001946634600E000BF01B5FFF7B7FF0028F7
:1018C00048BF10F1000F01BD4DF808EDFFF7F4FF20
:1018D0000CBF012000205DF808FB00BF4DF808EDAB
:1018E000FFF7EAFF34BF012000205DF808FB00BFCE
:1018F0004DF808EDFFF7E0FF94BF012000205DF8F0
:1019000008FB00BF4DF808EDFFF7CEFF94BF0120A4
:1019100000205DF808FB00BF4DF808EDFFF7C4FF9D
:1019200034BF012000205DF808FB00BF4FEA410CE6
:101930007FEA6C5C02D150EA013C0AD14FEA430CC9
:101940007FEA6C5C02D152EA033C02D14FF0000006
:1019500070474FF0010070474FEA410212F5001244
:1019600015D211D56FF47873B3EB625212D94FEAE6
:10197000C12343F0004343EA505311F0004F23FAD0
:1019800002F018BF404270474FF00000704750EA25
:10199000013005D111F0004008BF6FF000407047E2
:1019A0004FF00000704700BF08B5FEF76DFCFEF772
:1019B000A5FCFEF79BFCFEF7EDFC68B9FEF78EFE7A
:1019C000FEF794FFFFF71CF8FFF724F820B1FEF7AD
:1019D000B1FCB0F5FA7FF7D9FEF71AFEFEF784FFE7
:1019E000FEF7EBFF30BFFDE7FFF7B2F80B480C49FD
:1019F0000C4A002302E0D458C4500433C4188C426B
:101A0000F9D3094A094C002301E013600432A242D1
:101A1000FBD300F0E3F8FFF7C7FF7047000000209A
:101A2000DC0700204CAE0008DC0700205C0F002023
:101A3000FEE7000008B410B5002A04469DB034DB70
:101A40004FF4027C4FF00003ADF814C01B934FF627
:101A5000FF7C0291069120AB15D0013A04920792C7
:101A600002A91F9A0193ADF816C000F0DFF8421CDE
:101A700001DA8B2323600022029B1A701DB0BDE89F
:101A8000104001B070470492079202A91F9A019377
:101A9000ADF816C000F0CAF8431C01DA8B232360AE
:101AA0001DB0BDE8104001B070478B234FF0FF30F0
:101AB0002360F5E70CB410B5204B00291C689CB0DE
:101AC00036DB4FF000034FF402721B934FF6FF7C9E
:101AD00002900690ADF814201FAB16D001391E9A63
:101AE00004910791204602A90193ADF816C000F0B9
:101AF0009DF8421C01DA8B2323600022029B1A709E
:101B00001CB0BDE8104002B0704704910791204618
:101B10001E9A02A90193ADF816C000F087F8431C85
:101B200001DA8B2323601CB0BDE8104002B070477F
:101B30008B234FF0FF302360F5E700BF0400002047
:101B4000830730B546D08446841805E0634603F821
:101B5000011B9D0703D09C46A445F7D130BD013A37
:101B60000244A2EB0C02032A29D9CCB204EB0424D0
:101B70000F2A04EB04442FD9A2F1100C2CF00F0C07
:101B800003F11005AC44C3E90044C3E90244103337
:101B90006345F8D112F00C0F02F00F0E18D01A4660
:101BA0002EF0030C9C44AEF1040542F8044B624550
:101BB000FBD125F0030404330EF003022344002A72
:101BC000CCD0C9B21A4403F8011B9342FBD130BDFB
:101BD0007246F4E70346C6E79646E0E770B50F4B5A
:101BE0000F4DAB42A3EB050607D00024B61055F805
:101BF000043B01349847A642F9D8FEF743FB094D50
:101C0000094B5E1BAB424FEAA60606D0002455F8EE
:101C1000043B01349847A642F9D870BD4CAE000889
:101C20004CAE00084CAE00084CAE00082DE9F04F59
:101C3000DBB00C4615460A910E93834603F02CF850
:101C400003681846179303F06BF9082216900021D9
:101C50002AA8FFF775FFA3891B0603D52369002B6C
:101C600001F0A980002300249E46CDE92F330023F4
:101C700031AACDE912342F461446CDE91AEE2E9240
:101C8000CDF860E0CDF864E0CDF820E0CDF844E098
:101C90003D466E4BD3F8E46002F0ECFF0DF1A80C6A
:101CA00003462A46584626A9CDF800C0B04700286A
:101CB00000F09F80C0F29580269B252B01D0054423
:101CC000E7E7B5EB0708064640F0978000224FF0A3
:101CD000FF339246079301352B788DF88F200992B8
:101CE00099460135A9F120035A2B00F2B180DFE8B3
:101CF00013F03A02AF00AF003602AF00AF00AF0002
:101D00001902AF00AF006A00F301AF00EF01FC0160
:101D1000AF00F8015B005B005B005B005B005B00F9
:101D20005B005B005B00AF00AF00AF00AF00AF0037
:101D3000AF00AF002301AF007901F70223012301B7
:101D40002301AF00AF00AF00AF00F302AF00AF0060
:101D50004402AF00AF00AF00B601AF009902AF0080
:101D6000AF00B707AF00AF00AF00AF00AF00AF00EC
:101D7000AF00AF002301AF0079016401230123010B
:101D80002301180364017400AF003103AF00220384
:101D900066033B037400AF00B6017200D202AF00CD
:101DA000AF002908AF0072000022A9F1300315F836
:101DB000019B02EB820203EB4202A9F13003092BE3
:101DC000F5D909928EE70E9B53F8042B002A09924D
:101DD0000E93C0F27A812B7882E72B784AF0200AA2
:101DE0007EE7082200212AA8FFF7AAFE0120054469
:101DF0004FE7B5EB0708064610D02F9A309B01320B
:101E00004344072AC4E9007830932F9215DC083444
:101E1000089B43440893002E7FF458AF309B002B5F
:101E200041F058830A9B9B8903F04003002B41F04B
:101E3000F08708985BB0BDE8F08F58460A992EAA43
:101E400002F01CF80028EDD131ACE1E73C020020A3
:101E5000B9F1000FE2D0002301228DF804910C9219
:101E600041AF8DF88F300B93CDE90623CDE90F33C9
:101E70001493309E1AF08403314600F0E2809DF8FE
:101E80008F20FAB14FF000082F980122013001365F
:101E9000626007280DF18F02CDE92F06226000F362
:101EA000FB830834B8F1000F0CD02F9802220130C8
:101EB00002366260072824AACDE92F06226000F3CB
:101EC000DF830834802B00F0E482079B0C9AA3EB9D
:101ED0000208B8F1000F00F324831AF4807F40F069
:101EE00081820C9B27601E4463602F9B30960133D8
:101EF000072B2F9300F36D8308341AF0040F05D0DD
:101F0000099B069A9F1A002F00F3D483DDE908325B
:101F100006998A42ACBF9B185B180893002E40F0CC
:101F2000388300232F930B9B1BB158460B9904F069
:101F30006FF92F4631ACABE60E9B073323F0070158
:101F4000F1E80223CDE91223139B1E9223F00043F4
:101F50001F930E914FF0FF32DDE91E01AE4BFFF7EC
:101F6000E5FC002840F02186DDE91E014FF0FF323C
:101F7000A94BFFF7BDFC0646002840F01686DDE9B8
:101F80001201002200232AF0800AFFF7A7FC002894
:101F900041F04B819DF88F30B9F1470FCCBF9F4F77
:101FA0009F4F002B41F021860322CDE90F330B9385
:101FB0000C920793149306925BE71AF0200F40F0FF
:101FC000A5850E9A1AF0100F52F8046B41F026877F
:101FD0001AF0400F0E9201F01C8146F3C0384346C0
:101FE00036B28EE10E9BB9F1430F03F1040603D024
:101FF0001AF0100F00F0B886082200212CA8FFF775
:102000009FFD0E9A41AF2CAB39465846126805F039
:1020100079FE034601330C9001F0F6860C9B23EA0F
:10202000E373069300230E96309ECDE90F338DF8AF
:102030008F300B93079314931AF0840331467FF487
:102040001EAF099A0698A2EB0008B8F1000F00F342
:102050002B849DF88F20002A3FF437AF12E700232E
:10206000DDF838808DF88F3058F8047B002F00F0B1
:102070009186B9F1530F01F012801AF010030F93FB
:1020800041F00D80079B002BC1F236821A4638467C
:102090000F9902F005FF9DF88F300B90002801F09A
:1020A0008F850B9ACDF83880D21B0C9222EAE2720F
:1020B000069213B11346013306930F9B4FF0730939
:1020C0000793149310930B93D3E6099B5B420993F8
:1020D0002B784AF0040A03E62B238DF88F302B78F7
:1020E000FEE52B784AF0800AFAE5294611F8019BB3
:1020F000B9F12A0F01F07586A9F13003092B98BFB9
:10210000002201F22C8411F8019B02EB820203EB06
:102110004202A9F13003092BF5D942EAE2730D46D8
:102120000793DFE5584602F0B7FD43681846199358
:1021300002F0F6FE1B900646584602F0ADFD81689F
:102140002B781A91002E3FF4CBAD00293FF4C8AD97
:102150000A78002A3FF4C4AD4AF4806AC0E52B78BF
:102160004AF0010ABCE59DF88F202B78002A7FF405
:10217000B7AD20228DF88F20B2E51AF0200F4AF07B
:10218000100000F0BB840E9B073323F007031A46B0
:10219000596852F8083B0E9200228DF88F20079A5A
:1021A000002A18DB53EA010220F4906A15D1079A3D
:1021B0009AB910F001031A46069300F04B873023BA
:1021C0008DF86731079B0C92CDE90F3314930B9375
:1021D0000DF267174DE620F4806A5AAF03F007024C
:1021E000DB0843EA4173C908303253EA0106384636
:1021F00007F8012DF2D11AF001010F9140F023836D
:10220000079A5AABDB1B9A42B8BF1A460C93069248
:10221000149110910B912CE6FFFFEF7F2CA7000883
:1022200028A700081AF0200F4AF0100138D10E9BA1
:102230001A1D4FF000080E9B07981B6840451E466C
:102240008DF88F80C0F2808521F0800A002B00F08D
:1022500089840E920A2E78F1000380F0B78306F18C
:102260003003DBB28DF86731079B0DF26717012B46
:10227000B8BF0123069301230C939DF88F30002BE8
:1022800001F0A985069B013306930023CDE90F33A6
:102290000B931493EDE51AF0200F00F04C84514697
:1022A0000E9B073323F007031A46D3F8048000235C
:1022B0008DF88F30079B52F8086B002B0E92C0F2FE
:1022C000448556EA080321F0800AC3D1079B002BFE
:1022D00000F04D840026C2E72B784AF0080AFFE49C
:1022E0001AF0200F4AF0100100F01A840E9B8A4663
:1022F000073323F007031A465B6852F8086B9846C9
:102300000E92002BC0F25183079A002AA2DB56EAF4
:1023100008032AF0800A9DD1002A01F05980302359
:10232000A0E72B78682B03BF6B784AF4007A01355D
:102330004AF0400AD4E40E9A1AF0200F02F1040386
:1023400000F01E84126808991160C91751602F4669
:102350000E939DE42B786C2B03BF6B784AF0200A18
:1023600001354AF0100ABBE4002647F630030E9A06
:10237000079F52F8041BB742ADF890308DF88F607C
:102380000B46C0F2E5842AF0800040F0020A0029E2
:1023900040F0D586002F01F0228030238DF8673180
:1023A000012306974FF078098C46CDE90B13109165
:1023B0000E9214910F910DF2671700F0A6BC1AF05F
:1023C000200F40F0EF830E9A1AF0100152F8043BF0
:1023D00041F02A851AF0400000F00B8750460E921B
:1023E0009BB2D9E6B9F1650F40F3FD80DDE912013A
:1023F00000220023FFF768FA002800F0A0810123E3
:1024000063602F9BB24A01330136072B30962F931E
:10241000226000F338860834259B119A934280F29B
:102420006483169B179A1E44C4E900232F9B3096A1
:102430000133072B2F9300F3A1840834119B5F1EF7
:10244000002F7FF75AAD102F2F9B41F35384A149E2
:1024500032464FF010080E46DDF82890159104E042
:102460000834103F102F40F3A98001331032072B9E
:10247000C4E90068CDE92F32F2DD494658462EAA5C
:1024800001F0FCFC002840F08C80DDE92F3231ACFB
:10249000E7E7099B069AA3EB0208B8F1000F7FF764
:1024A00014ADB8F1100F2F9A41F32C83DFF824C23A
:1024B0002146304610232E4664460A9DCDF854C06E
:1024C00006E0A8F11008B8F1100F01F1080118DDBD
:1024D00001321030072AC1E90043CDE92F20F0DD99
:1024E000294658462EAA01F0C9FC002859D1DDE939
:1024F0002F20A8F11008B8F1100F4FF0100331A9E8
:10250000E6DC35460C4606460132159B4644072A52
:10251000CDE92F262360C4F8048000F3FE8508343B
:10252000D3E46C4BB8F1100F2F9A159324DD21469C
:1025300010230A9C06E0A8F11008B8F1100F01F171
:10254000080118DD013263481036072AC1E900038B
:10255000CDE92F26EFDD214658462EAA01F08EFC4C
:10256000F8B9DDE92F26A8F11008B8F1100F4FF0E7
:10257000100331A9E6DC0C460132159B4644072ABC
:10258000CDE92F262360C4F8048000F302820834CA
:10259000A3E458460A992EAA01F070FC00283FF4E3
:1025A000C0AC0B9B002B3FF43DAC58460B9903F09D
:1025B0002FFE0A9B9B8903F0400337E41646159AC9
:1025C00001333E44072B22606760CDE92F367FF749
:1025D00093AC58460A992EAA01F050FC0028E0D18D
:1025E000309E31AC89E42F9B013603F10108119B29
:1025F00004F10809012B40F33D810123B8F1070FD5
:10260000CDE92F862760636000F36282169B08F194
:102610000108179A1E44B8F1070FC9E90023CDE954
:102620002F8600F3488209F10809119B0022DDE999
:1026300012015C1E0023FFF747F9002840F07E815D
:1026400008F1010801372644B8F1070FCDE92F86BC
:10265000C9F80070C9F8044000F3198109F10809AC
:10266000189A08F101031644C9F80420072B28AA78
:10267000CDE92F36C9F80020ABDC09F108043CE4B1
:1026800058460A992EAA159301F0F8FB002888D124
:10269000309E159B31AC15E458460A992EAA159325
:1026A00001F0ECFB00287FF47CAF309E159B31AC31
:1026B000FFF7F8BB102F2F9B41F39481064AAA46DF
:1026C0004FF010081546DDF8289015920BE000BF7A
:1026D00068A70008C4A90008D4A90008103F102F5B
:1026E00004F1080415DD01331036072BC4E9005846
:1026F000CDE92F36F2DD494658462EAA01F0BEFB41
:1027000000287FF44EAFDDE92F36103F102F31AC9B
:10271000E9DC55460133159A3E44072BC4E90027EE
:10272000CDE92F367FF7F2AB58460A992EAA01F071
:10273000A5FB00287FF435AF309EFFF7E7BB259956
:10274000002940F34C84DDF83C90119B9945A8BFCB
:102750009946B9F1000F0ADD2F9B4E440133072B38
:10276000C4E9007930962F9300F38C870834DDF8A4
:102770003C80B9F1000FA8BFA8EB0908B8F1000F21
:1027800000F328830F9B1AF4806F3B4440F04B8387
:10279000259A11998A4203DB1AF0010F00F0328664
:1027A000169917980E44C4E900012F99309601310B
:1027B00007292F9101F382800834119907EB010852
:1027C000A8EB03088F1AB845A8BFB846B8F1000FA8
:1027D0000BDD23602F9B46440133072BC4F8048094
:1027E00030962F9301F3EF800834B8F1000FA8BFA3
:1027F000A7EB0807002F7FF780AB102F2F9B41F32B
:102800007982C44932464FF010080E46DDF8289010
:10281000159104E00834103F102F7FF7CFAE01333D
:102820001032072BC4E90068CDE92F32F2DD4946AA
:1028300058462EAA01F022FB00287FF4B2AEDDE953
:102840002F3231ACE7E7302A00F0538430230238CE
:10285000002207F8013C07465AAB1B1A0B920C9357
:102860000799CDE90F229942B8BF194614920691F3
:10287000FFF7FFBA1AF0010F7FF4BFAE0123B8F1E2
:10288000070FCDE92F86276063607FF7E9AE5846D2
:102890000A992EAA01F0F2FA00287FF482AEDDE94F
:1028A0002F860DF1C409DBE62F9AB8F1100F41F322
:1028B0005280DFF864C220462095102665460A9CA7
:1028C000CDF854C0219306E0A8F11008B8F1100F1C
:1028D00000F1080017DD01321031072AC0E9005667
:1028E000CDE92F21F0DD214658462EAA01F0C6FA87
:1028F00000287FF456AEDDE92F21A8F11008B8F1C9
:10290000100F31A8E7DC0446209D219B159808EBA9
:1029100001062060501C0728CDE92F06C4F804806A
:1029200000F382839DF88F200834002A40F0E28073
:10293000002B3FF4CAAA1346FFF7B8BA119B012B2C
:102940007FF78EAE112B41F35B82724932464346CC
:1029500010270E46DDF82880159105E009F10809D9
:10296000103C102C40F31D8401331032072BC9E9B1
:102970000067CDE92F32F1DD414658462EAA01F01D
:102980007DFA00287FF40DAEDDE92F320DF1C40988
:10299000E6E758460A992EAA01F070FA00287FF45B
:1029A00000AE309E31ACFFF798BA2D238DF88F30F2
:1029B000079B764268EB4808002BFFF64BAC0A2ECB
:1029C00078F100032AF0800AFFF449AC0AF480632E
:1029D000CDE90B494FF0000C1C46DDF868905AA970
:1029E000069526E016EB08034C4843F10003A0FBD4
:1029F000032020F0030202EB90029B1A4FF0CC322E
:102A0000B6464546F31A02FB03F2444868F1000853
:102A100000FB0822A3FB0063BEF10A0F13444FEA38
:102A2000560675F10005394646EAC3764FEA530863
:102A30002DD33A4D16EB080343F10003A5FB032009
:102A400020F0030202EB90029B1AF31AA3FB05325B
:102A500068F1000005FB00225B0843EAC27303EB48
:102A60008303A6EB430330330CF1010C4F1E01F836
:102A7000013C002CB6D099F800306345B2D1BCF1CE
:102A8000FF0FAFD00A2E78F1000380F0EF83079A92
:102A90005AABDB1B9A42B8BF1A46069DCDF8689028
:102AA0000B9CDDF83090CDF844C00C9306929DF855
:102AB0008F30FFF7E4BB58460A992EAA01F0DEF9E1
:102AC00000287FF46EADDDE92F860DF1C409ACE579
:102AD00058460A992EAA01F0D1F900287FF461AD79
:102AE000DDE92F860DF1C40990E51AF0010F3FF4DE
:102AF00004AA96E498460023FFF7C7B90E9B1A1D57
:102B00000E9B00211B680E92FFF746BB5146FFF754
:102B1000EDBB00BFC4A90008D4A90008CDCCCCCC23
:102B20000E9B1A1D0E9B8A461E680E924FEAE6788F
:102B30004346FFF7E6BB0E9A1AF0100852F8043B22
:102B400041F06F811AF0400100F03D839EB2079B77
:102B50008DF88F80002BFFF67CAB2AF0800A002EC8
:102B60007FF477AB079B0E92002B7FF4B3ABCDE9DC
:102B70000F330C93149306930B935AAFFFF779B965
:102B80001AF0100F40F0D5821AF0400F40F09C84EC
:102B90001AF4007F00F0CD820E9A08991268117025
:102BA000FFF7D5BB5046FFF7EEBADDE9120102464A
:102BB0000B46FEF7BBFE0646002841F01D80B9F12A
:102BC000610F00F09985B9F1410F00F0CD86079BA8
:102BD000013300F0C484B9F1670F139B4AF4807885
:102BE00000F09C87B9F1470F00F098870B90DDE962
:102BF0001212002A1346C0F2898700231593DDE9DB
:102C00001223CDE91C23A9F14103252B00F21584E1
:102C1000DFE813F03F07130413041304B0041C058A
:102C200013041304130413041304130413041304EC
:102C300013041304130413041304130413041304DC
:102C400013041304130413041304130413041304CC
:102C5000130413043F07130413041304B0041C05E6
:102C6000B8481AF0200600F075810E9B073323F058
:102C700007031A465E6852F8083B0E921AF00102EA
:102C800000F0778153EA060200F0ED8130228DF8E2
:102C9000902000228DF88F20079A8DF89190002ABD
:102CA000C0F293812AF4906242F0020A03F00F020C
:102CB000825C0AF002011B0943EA06738DF8672162
:102CC000320953EA16160DF267170BD003F00F0600
:102CD000865D1B0943EA0273120907F8016D53EA86
:102CE0000206F3D1079A5AAB4FF0000CDB1B9A4255
:102CF000B8BF1A46CDE90FCC0C930692CDF82CC084
:102D0000CDF850C000293FF4B4A8DDE92F06069B9A
:102D10003146023306931AF08403024608D1DDF8E7
:102D200024E0DDF81880AEEB0808B8F1000F07DCEE
:102D3000BCF1000F3FF4BAA84FF00208FFF7A5B8A6
:102D40000223B2E580488CE70E928A46FFF782BAEA
:102D50000E927D4A03F00F07104602214FF07809CA
:102D6000D25D4AF0020AA6E70E9B41AF1B688DF8C0
:102D70000431012306930C93FFF754B958460A997E
:102D80002EAA01F07BF800287FF40BAC309E31AC0A
:102D9000FFF754BB079B3A46062B28BF062307972D
:102DA0000B97CDE90F22694F0693CDF838800C932D
:102DB0001492FFF75EB84021584603F065FB0A9B6A
:102DC00018601861002801F0518040230A9A53616D
:102DD000FEF748BFB8F1100F2F9B41F30D805C4800
:102DE000224631464FF0100906460A9C159006E02F
:102DF0000832A8F11008B8F1100F40F3BD8201337A
:102E00001031072BC2E90069CDE92F31F0DD2146F1
:102E100058462EAA01F032F800287FF4C2ABDDE953
:102E20002F3131AAE5E7119A3146BA1807922246A6
:102E30001C46109BDDF85080002BCDF854A0DDF827
:102E400068901B9EDDF828A00F95149731DDB8F12E
:102E5000000F40F3128108F1FF382F98199B0130C1
:102E600031440728C2E9003630912F9000F3A28048
:102E70000832079B99F800001F1B8742A8BF07462E
:102E8000002F0CDD2F98394401300728C2E9004794
:102E900030912F9000F3348199F800000832002F10
:102EA000B4BF0546C51B002D15DC0444109B002B48
:102EB000CDDCB8F1000FCEDC2346149F1446119AE6
:102EC0000E46BA18934228BF13460F9DDDF854A052
:102ED000CDF868905CE4102D2F981D4B23DD0C94E9
:102EE00010272C461D4604E0103C102C02F108026D
:102EF00016DD0130164B10310728C2E90037CDE945
:102F00002F01F1DD514658462EAA00F0B7FF0028E8
:102F10007FF447ABDDE92F01103C102C31AAE8DC2F
:102F20002B4625460C9C013029440728CDE92F016A
:102F30001360556000F3988399F800000832044448
:102F4000B4E700BF4CA7000838A7000860A7000836
:102F5000C4A900080E9A52F8043B0E921AF010020F
:102F60007FF48CAE1AF0400100F04D8116469BB202
:102F700084E68DF88F20079A002A28DB53EA0602A0
:102F80002AF4906A7FF492AE079A002A00F0E0805B
:102F9000012AB8BF0122037806928DF86731012219
:102FA00000230C92CDE90F330B930DF267171493A6
:102FB000FEF75FBF514658462EAA00F05FFF00287B
:102FC0007FF4EFAA309931AA53E74AF0020A03F0DE
:102FD0000F020AF00201825C2AF4806A6BE6012388
:102FE00063602F9B9E4A01330136072B30962F9347
:102FF000226000F3E1810834002940F0AB80119A8F
:103000000AF0010313433EF478AF169B179A1E444F
:10301000C4E900232F9B30960133072B2F9300F335
:10302000918204F10802A6E058460A992EAA159347
:1030300000F024FF00287FF4B4AA9DF88F20309E72
:10304000159B002A00F0A580984631AC03462F98C6
:10305000FEF71BBF079B5AAFCDE90F330C931493B8
:103060000B93FEF706BF0021079B8DF88F108B4254
:10307000C0F2EE802AF4906A86E7109B09F1FF39CE
:10308000013B1093E9E658460A992EAA00F0F6FE95
:1030900000287FF486AA309E31ACFFF7BDB9082224
:1030A00000212CA82797FEF74BFD079B002BC0F2B1
:1030B000288100260695CDF82C80354698460FE0ED
:1030C0002CAB584641A904F01DFE431C06F1040632
:1030D000284400F04285404506DC00F0A8850546FE
:1030E000279B9A59002AEBD10C95DDF82C80069D80
:1030F00015E100225AABDB1B0B920C93FFF7B0BB20
:10310000514658462EAA00F0B9FE00287FF449AA7D
:1031100099F80000309931AAC1E658460A992EAABA
:1031200000F0ACFE00287FF43CAA309E31ACFEF7E4
:10313000CCBE0E9A089912681160FFF708B9494889
:103140000E9201F00F024FF078090221825CB2E585
:10315000079B0CE5169B179A1E44C4E900232F9B7E
:1031600030960133072B2F9300F3EC8104F1080212
:103170000029C0F23B84119901330E44072BCDE99D
:103180002F36176051603FF724AA02F10804FEF7BA
:10319000B4BE002B00F0408113462F9831ACFEF7EF
:1031A00085BE1646984608F10108159B2644B8F1DD
:1031B000070FCDE92F86C9F80030C9F804407FF722
:1031C0004DAAFFF764BB1AF4007840F028810799F4
:1031D0001E4600298DF88F80FFF63BA82AF0800A52
:1031E000002B7FF436A80B460E9200297FF472A8BC
:1031F000BDE41AF4007100F01C8101460E925046A5
:10320000DBB2FEF7C9BF1AF400761CBF0E46DBB274
:1032100034E51AF4007F14BF46F3C0184FEAE6788D
:10322000434618BF76B2FFF76CB82D238DF88F3068
:1032300003230C930423B9F1470F0B96069300F375
:103240005481CDE90F66084F07961496FEF711BE1C
:1032500003782AF4806A8DF867310DF2671741E52B
:1032600068A7000838A7000828A700081B9A199922
:10327000BD1A284601F008F899F801300BB109F1A0
:1032800001094FF0CC314FF0010CB84A16EB08039E
:1032900043F10003A2FB030E2EF0030000EB9E009F
:1032A0001B1AF31A03FB01F168F10008A3FB0230BB
:1032B00002FB081123FA0CF3014443EAC17621FA18
:1032C0000CF816EB080343F10003A2FB031020F0F7
:1032D000030101EB90015B1AF31AA3FB023168F1C1
:1032E000000002FB001223FA0CF343EAC27303EB63
:1032F0008303A6EB430330336F1E05F8013CFFF751
:10330000BABB2CAB009300235846194627AA04F0F9
:103310004BFD034601330C9000F01F8427970C9B54
:10332000002B39D0632B00F3F780002341AF0B93C0
:10333000082200212CA8FEF703FC0C9E2CAB009366
:1033400039463346584627AA04F02EFD864240F0FF
:10335000878500230C9ABB5422EAE2719DF88F20E6
:103360000691002A40F07683CDE90F220792CDF82E
:1033700038801492FEF77DBD14460E460133159A2F
:103380004644072BCDE92F362260C4F8048000F3B1
:10339000CD800834FFF7F6B99DF88F30CDF838802E
:1033A000003B18BF012306930C9BCDE90F33079315
:1033B00014930B93FEF75DBD58460A992EAA00F0B0
:1033C0005DFD00287FF4EDA82599309E31AC13E611
:1033D0009DF88F3006920C925AAFFEF750BFDDF881
:1033E0001CC04FF078090E92CDF840C0CDF850C007
:1033F000CDF830C0CDF83CC0CDF818C05AAFCDF8EC
:103400002CC082E407EB0108A8EB03088F1AB8452B
:10341000A8BFB846FFF7E9B931ACFEF756BDDEB23A
:10342000079B8846002B8DF88F10BFF696ABFEF7F2
:1034300010BF50460E92FEF7AFBE079B5846019351
:10344000022300932CAB049327AB039325AB029389
:10345000DDE91C2301F068FE07461AF0010F40F079
:10346000AD82259A2C9BD11CA3EB070311930F92DD
:10347000C0F2338207999142C0F22081934200F357
:10348000F4820F9B0C931AF4806F03D00F9B002BD8
:1034900000F3DB83C2464FF067090C9B23EAE3731A
:1034A0000693002314931093159B0AF00201002B3E
:1034B00000F0D0804FF02D0C8DF88FC0069B0133AB
:1034C0000693002307931DE40E9A08991268118051
:1034D000FEF73DBF0A9C584621462EAA00F0CEFCBE
:1034E000A38903F04003FEF7A1BCCDE90F66204F8E
:1034F00007961496FEF7BDBC384601F011FD9DF805
:103500008F3020EAE0720C900692CDF83880002BC4
:103510003EF4D3ADFEF7CEBD5846591C02F0B4FFC1
:103520000746002800F08E840B9001E758460A9960
:103530002EAA00F0A3FC00287FF433A8309E31AC03
:10354000FFF720B958460A992EAA00F097FC0028E8
:103550007FF427A8DDE92F36259931AA08E606234E
:103560000B9007934AF48078FFF741BBCDCCCCCCCD
:103570002CA700080223079A0132119200932CAB6A
:10358000119E049327AB039325AB019602935846F3
:10359000DDE91C2301F0C8FD29F02003462B074676
:1035A0000693064400F05581DDE91C01002200234A
:1035B000FEF78AF9002840F015832C9B9E4240F2CA
:1035C0000F834522069230215A1C2C9219702C9B95
:1035D000B342F9D3DB1B1193259B0F93069B472B1B
:1035E00064D0069B462B00F04F810F9B8DF8A09076
:1035F000013B002B2593C0F277812B22092B8DF8FC
:10360000A12000F37A8130228DF8A2200DF1A302CF
:10361000303302F8013B28ABD31A1893119B189A48
:10362000012B1A440C9240F3A3820C9B169A13446C
:103630000C932AF4806343F4807A00230C9ACDE93A
:103640000F3322EAE272149306922DE7079B11933F
:10365000032393E79DF88FC0BCF1000F7FF42EAFDA
:10366000159B0793FFF74EBB514658462EAA00F014
:1036700005FC00287EF495AF99F80000309931AA36
:10368000044413E458460A992EAA00F0F7FB0028D8
:103690007EF487AF309E31ACFFF769B8259B0F935E
:1036A000F31B1193069B472B40F0EE800F9B0333D7
:1036B000C0F21381079B0F9A93420FDA0F9BA9F177
:1036C0000209013B002B8DF8A090259395DA2D225D
:1036D0000F9B8DF8A120C3F1010394E7119B0F9A72
:1036E000934200F3C2811AF0010F0F9B00F0068392
:1036F000169A13440C93C6E647F63003ADF89030A3
:10370000079B4AF0020A632B00F3DF81DDE9121206
:10371000002AC0F2B581DDE9120125AA01F02EFCD4
:1037200000224FF07F53FDF767FE02460B46CDE9BE
:103730000C2300230022FEF7C7F80346002800F000
:10374000E0820123159625930B9641AFAD4B06936E
:10375000079BB846591E07950F94CDF840901497D3
:103760008946DDE90C45069FCDF844A007E000221C
:103770000023FEF7A9F8002840F00C82D146002271
:10378000A14B20462946FDF737FE0D460446FEF7BD
:10379000E3F80646FDF7C6FD02460B4620462946DD
:1037A000FDF772FCBB5DB9F1FF3F424604460D4692
:1037B00009F1FF3A08F8013BD9D1CDE90C45DDE923
:1037C000109A079D914B079200220F9C149FFEF7C1
:1037D000A3F840B9DDE90C0100228C4BFEF774F828
:1037E000E0B1F0071AD5079B2C93069B18F8012C23
:1037F000D97B4346914209D1302003F8010C2C9B20
:103800005A1E2C9213F8012C8A42F6D0392A0BBF8B
:10381000069A0132927AD2B203F8012C259AA8EBCB
:1038200007031193B9F1610F02F1FF33259300F003
:10383000928250214FF04109002B8DF8A010C0F268
:1038400071822B22092B8DF8A12056DC0DF1A202EA
:10385000DEE63B78302B00F09081259B1E44002251
:10386000DDE91C010023FEF72FF800287FF416AFD6
:103870002C9B9E423FF6A7AEDB1B1193259B0F931B
:10388000069B472B3FF412AF0F99079A0AF00103EA
:10389000002943EA020340F37582002B40F0CE81F9
:1038A0004FF066090F9B0C931AF4806F40F0CF81A4
:1038B0000C9BC24623EAE3730693F2E558460A9945
:1038C0002EAA079300F0DAFA00287EF46AAE259A51
:1038D000309E079B31ACFEF770BF0F9BA9F1020928
:1038E000013B8DF8A09025932D220F9B8DF8A120F0
:1038F000C3F10103092B7FF786AE0DF1B70C6246C9
:10390000DFF80CE11E461046AEFB0321C90801EBAF
:103910008102A3EB42023032632E00F8012C0B46E9
:1039200000F1FF32EEDC303302F8013C831E6345C8
:1039300080F04E820DF1A10213F8011B634502F8DD
:10394000011FF9D103F5B4736B44C43B1B1A28AAB9
:103950009B1A189362E62F481590FEF7D7BF0023F5
:103960000D460793FEF7BEB945F63003ADF890302B
:10397000079B4AF0020A632B00F3A780DDE91212CD
:10398000002A7DDBDDE9120125AA01F0F7FA002209
:103990004FF07F53FDF730FD02460B46CDE90C2377
:1039A00000220023FDF790FF08B101232593002397
:1039B000194A1593069241AF0B93C9E64723069324
:1039C000079BFE184BE758460A992EAA00F056FAB4
:1039D00000287EF4E6AD259F119B309E31ACDF1BA5
:1039E000FEF703BF0B4A1592FEF794BEC1F1000823
:1039F000103180F232820948314610240646159073
:103A000014E000BF38A70008000030400000E03F8D
:103A1000CDCCCCCCD4A900084CA70008C4A9000880
:103A20000832A8F11008B8F1100F5CDD0133103135
:103A3000072BC2E90064CDE92F31F1DD58460A9920
:103A40002EAA00F01BFA00287EF4ABADDDE92F3181
:103A500031AAE6E7069ACDE90F3301320793CDF894
:103A6000388006921493FEF704BA119B169A9A189E
:103A70000F9B0C92002B40F311814FF0670913E765
:103A800013461C912D2103F100430B96159141AF74
:103A90001D9325AADDE91C0101F070FA00224FF008
:103AA0007F53FDF7A9FC02460B46CDE90C2300220B
:103AB0000023FDF709FF08B101232593B9F1610F38
:103AC0003FF444AEAA4B069342E6079B5846591C66
:103AD00002F0DAFC0746002800F096810B904AF4C9
:103AE0008078FFF784B80E46013315994644072BBA
:103AF000CDE92F361160C2F8048000F3DB80083274
:103B0000FFF739BB9B4B1593FEF7FEBC1C912D2193
:103B100003F1004315911D93FFF775B8079A002A2A
:103B200000F0F580002BC0F24A81DDE91223CDE9D7
:103B30001C231596079B58460193022300932CAB38
:103B4000049327AB039325AB0293DDE91C2301F01B
:103B5000EBFA002307460B937FE400220A9B0B92AB
:103B6000B3F90C3043F040030A9A9381FEF719BD74
:103B70001AF0010F3FF45DAD57E50022DDE91C01AD
:103B80000023FDF7A1FE002800F0D580259B0F93B0
:103B90001E4485E54946DDE9109A0029079D0F9CE2
:103BA000149FFFF63BAE424630204B1C434402F8C4
:103BB000010B9A42FBD108EB010303F101082DE64A
:103BC000CDF83880002B00F0BB80079B4FF07309C5
:103BD0000C9301330693079014901090FEF749B9A7
:103BE000DB1B1193259B0F93FFE403220023CDE9F8
:103BF0000B320422FEF738B9139B2AF0800A13F027
:103C000000430F9363D02D2303228DF88F300023C0
:103C1000CDE90B320422B9F1470F069240F3C88078
:103C2000CDE90F33544F07931493FEF722B9079B46
:103C3000069DDDF82C800C93FFF771BB169B0A44A0
:103C4000D3184FF066090C932EE64FF067091A99C6
:103C50000B78FF2B00F0FD8000260F9A304603E022
:103C600001300131FF2B08D0934206DAD21A4B788B
:103C7000002BF5D10B780136F4E7CDE90F201A912E
:103C80001496109A149B1B9913440C9AC24601FB7C
:103C900003230C9323EAE373069305E4C3F10103C2
:103CA0001A4422EAE273C2464FF067090C92069367
:103CB000FFF7F7BB58460A992EAA00F0DFF8002854
:103CC0007EF46FACDDE92F3631AAFFF754BA9DF8C8
:103CD0008F30B9F1470FCCBF274F284F002B40F052
:103CE000A680032207930C92149310930B930692D1
:103CF000FEF7BFB81F4A1592FEF761BC0C93FFF7A1
:103D0000C2BB1F4A1593069241AF0B9320E5002BCF
:103D100023DB079B159301230793DDE91223CDE9EC
:103D20001C2307E7C2F101032D22092B8DF8A120E6
:103D30003FF7E3AD8AE5119BC3F1010325938DE5C0
:103D4000079B4FF073090C9306930B9B14931093EE
:103D50000793FEF78EB870216EE52D21DDE9122361
:103D60001591012103F100431C9207911D93E1E697
:103D70004CA70008C4A9000834A7000830A7000811
:103D800038A70008C24633B901234FF066090693ED
:103D90000C93FFF786BB169B03F10109079B4B446D
:103DA0000C9323EAE3734FF066090693FFF779BBA0
:103DB000CDE90F332F4F07931493FEF75AB82D21F7
:103DC000DDE9122303F100431C9215911D93B1E626
:103DD0000223189322E4CDE90F330B931493FEF7DB
:103DE00048B80E9A6B780D4652F8041B0E9241EAC1
:103DF000E1720792FDF774BF1F4A1592FFF7BEBA32
:103E00001D4B1593FFF7CFB90A9A938943F04003EE
:103E100093814FF0FF330893FEF70BB85146FEF73E
:103E200081BE5146FEF705BA5046FEF769BE032231
:103E300000230C92042207930692149310930B9381
:103E4000FEF717B80A9B0B90B3F90C3043F0400310
:103E50008AE600231493109313E70749159143E66C
:103E60000A9BB3F90C3043F040037DE60C23CBF8FA
:103E70000030CEE730A70008C4A900082DE9F041C2
:103E8000154692682C68FAB107468846083402E065
:103E900013460834C3B16B685E1E002B6E6013DDE1
:103EA00054F8046C002EF3D033464146384654F89B
:103EB000082C03F09FFF431C07D0AA680834921B0C
:103EC0001346AA60002BE6D100200023C5E9013388
:103ED000BDE8F081024A0349034800F069B900BF18
:103EE00048010020B57E0008080000200C4B416806
:103EF00010B59942044601D003F0DCFFA168094BDC
:103F0000994202D0204603F0D5FFE168064B994262
:103F100004D02046BDE8104003F0CCBF10BD00BF68
:103F2000FC0B0020640C0020CC0C002008B54B6E6C
:103F3000DA0702D48B899B0501D5002008BD886D66
:103F400000F046FF002008BD08B54B6EDA0702D42A
:103F50008B899B0501D5002008BD886D00F040FFCE
:103F6000002008BD2DE9F84300250423304C314AD8
:103F70003149DFF8C890DFF8C880324F324E116007
:103F800004F15C0029460822C4E90335C4E9005560
:103F9000C4E90555A5606566FDF7D2FD04F158003A
:103FA000C4E90749C4E90987E66200F009FF274B25
:103FB0002946082204F1C4006367C4E91A55C4E91C
:103FC0001E552567C4F8CC50C4F88050FDF7B8FDE5
:103FD00004F1680304F1C000C4F88430C4E92298F5
:103FE000C4E9247600F0ECFE194B294604F59670DE
:103FF0000822C4F8DC30C4E93455C4E93855C4F8A3
:10400000D850C4F83451C4F8E850FDF799FD04F1D4
:10401000D003C4E93D87C4F8F09004F59470C4F867
:10402000FC60C4F8EC30BDE8F84300F0C9BE00BF46
:10403000FC0B0020340D0020D53E0008F54100089F
:104040001D4200085D42000881420008090001008D
:1040500012000200F8B506462A4800F0B9FE2A4BC5
:104060001B68002B43D0294FD7E90134013B04D50D
:1040700024E05A1C04F1680420D0B4F90C50013B30
:10408000002DF6D1224B04F15800E360656600F084
:1040900097FE1C4800F0A4FE08222946C4E90155F9
:1040A000C4E904552560A56104F15C00FDF748FDF5
:1040B000C4E90C55C4E911552046F8BD3D680DB161
:1040C0002F46D1E74FF4D671304602F0DDF90446B1
:1040D00080B104230560294625460C304FF4D07288
:1040E000A0606360FDF72CFD3C602F46BCE7FFF746
:1040F00039FFB8E703483C6000F072FE0C233360E0
:10410000DAE700BF1C0F0020340D0020480100201A
:104110000100FFFF10B504460A4800F059FE636B2A
:1041200023B9094B094A1B68626323B1BDE81040FB
:10413000044800F055BEFFF715FFBDE810400148E8
:1041400000F04EBE1C0F0020340D0020ED3E000894
:10415000014800F03DBE00BF1C0F0020014800F0E8
:104160003FBE00BF1C0F002008B5054800F030FE20
:10417000BDE808400020034A034900F019B800BF19
:104180001C0F0020480100202D3F000808B500202A
:10419000044A054900F00CF8BDE80840034800F067
:1041A0001FBE00BF48010020493F00081C0F00202F
:1041B0002DE9F8434FF0000980460F461646D6E930
:1041C0000154013D10D4A389012B08D9B4F90E3054
:1041D000013304D021464046B84749EA0009013D71
:1041E0006B1C04F16804EED13668002EE7D1484616
:1041F000BDE8F88310B50C46B1F90E1000F0B2FD21
:10420000002803DB236D0344236510BDA38923F439
:104210008053A38110BD00BF002070472DE9F041FD
:104220000C46B1F90C101F46CB05054616460BD4BB
:1042300021F48051A1813B4632462846B4F90E1044
:10424000BDE8F04100F0A4BDB4F90E100223002235
:1042500000F072FDB4F90C10EAE700BF10B50C468F
:10426000B1F90E1000F068FDB4F90C30421C0EBF1D
:1042700023F4805343F480532065A38110BD00BF15
:10428000B1F90E1000F010BD40EA01039B0710B514
:1042900024D1032A22D98E468446DEF80040714696
:1042A000A4F1013323EA040313F0803F0EF1040E5E
:1042B00015D1043A032A4CF8044BEED8714601F1AB
:1042C000FF3E52B163461EF8011F541E03F8011B46
:1042D00041B122469C46002AF4D110BD844601F12A
:1042E000FF3EEEE79444002CF7D003F8011B634532
:1042F000FBD110BD70B50F4D0F49104800F072FD95
:104300002C4605F1A00621460B48FCF7B1FC2034F1
:1043100018B9B442F7D1094870BD0949074803F0FC
:10432000C7FF29460548203503F0C2FFB542F4D146
:10433000F1E700BF7C0200205C0200205401002055
:104340006CA700082DE9F04F00EB411705460E461B
:104350008FB0394610461446FCF78AFC18B9384627
:104360000FB0BDE8F08F2046A249FCF781FC002881
:1043700000F0C1802046A049FCF77AFC002800F03C
:10438000B3802378432B00F0BB80613B192B15D8F9
:104390006378613B192B11D8A378A3F16102192A24
:1043A00096BFE37804F1020904F103095F2B0AD0F8
:1043B0002E2B00F0BF8213F0BF0F13D0002738461A
:1043C0000FB0BDE8F08F99F80130413B192BF5D8BB
:1043D00099F80230413B192BF0D899F8033009F1D4
:1043E0000309E5E70DF118084046844900F0FAFC9E
:1043F00099F80030402B00F08C824FF00009CA463B
:10440000CB469DF81830413B342BD7D801A252F847
:1044100023F000BF8B480008BD4300082D4800086A
:10442000BD430008F1470008BD430008BD47000830
:10443000BD4300081D470008FD4600083D46000832
:10444000BD430008BD430008BD430008BD4300084C
:10445000DD450008BD430008BD430008BD45000818
:104460008145000833450008BD430008BD430008EE
:10447000BD430008BD430008BD430008BD4300081C
:10448000BD430008BD430008BD430008BD4300080C
:10449000BD4300088B480008BD4300082D480008B4
:1044A000BD430008F1470008BD430008BD470008B0
:1044B000BD4300081D470008FD4600083D460008B2
:1044C000BD430008BD430008BD430008BD430008CC
:1044D000DD450008BD430008BD430008BD45000898
:1044E00081450008334500080DF11808404644494D
:1044F00000F078FC81E720463F4900F073FC39E783
:1045000063782D3B012B3FF659AF04F102090DF101
:1045100018084946404600F065FC4021404603F03B
:10452000E7FE08B100230370404600F0F9FC814427
:104530005EE74046334903F099FE30B140463249C8
:1045400003F094FE00287FF439AF40462D4900F077
:1045500049FC06232D4A01932D4B022E00F0B08119
:10456000062E04D1414605F5A57000F03BFC21461E
:10457000384600F037FC074638460FB0BDE8F08FEC
:1045800003224046234903F03FFF00287FF416AF83
:104590009DF81B3020492D2B14BF0DF11B0007A8DF
:1045A000FCF766FB00287FF409AF40461B4900F08A
:1045B00019FC01231A4A01931A4BCEE740461A49C7
:1045C00003F054FE00287FF4F9AE4046164900F08F
:1045D00009FC0223154A0193154BBEE740461549D5
:1045E00003F044FE00287FF4E9AE4046124900F093
:1045F000F9FBDEE770A7000878A7000884A7000889
:104600007CA70008B0A70008B8A70008297B00080D
:10461000456A000840A8000844A8000848A8000807
:104620000D7B0008196A0008D4A70008C97B0008A0
:10463000456C000830A8000838A80008042240464D
:10464000C34903F0E1FE00287FF4B8AE9DF81C30AA
:104650002D2B06BF9DF81D300DF11D0207AA522B10
:1046600000F029811378543B212B3FF6A7AE01A21D
:1046700052F823F0AD480008A3480008BD430008E5
:10468000BD430008BD430008BD430008BD4300080A
:10469000BD430008BD430008BD430008BD430008FA
:1046A000BD430008BD430008BD430008BD430008EA
:1046B000BD430008BD430008BD430008BD430008DA
:1046C000BD430008BD430008BD430008BD430008CA
:1046D000BD430008BD430008BD430008BD430008BA
:1046E000BD430008BD430008BD430008B7480008AB
:1046F000BD430008AD480008A3480008404695495E
:1047000003F0B4FD00287FF459AE4046914900F013
:1047100069FB0823904A0193904B1EE70322404611
:104720008F4903F071FE00287FF448AE9DF81B30DE
:1047300004222D2B14BF0DF11B0307AB184689492A
:10474000019303F061FE00287FF438AE019B05A9B8
:104750001A792D2A18BF181D4FF00A0208BF581DDC
:1047600003F0BCF9421E0F2A3FF628AE0C28019038
:104770003FF424AE059A1278002A7FF41FAE7A49DE
:10478000404600F02FFB019B78480A2BC4BF312222
:104790008DF821204FF00002CCBF0DF122010DF168
:1047A00021014A7080FB0320DA17C2EBA00202EB62
:1047B0008202A3EB420330330B70FAE60822404634
:1047C0006B4903F021FE00287FF4F8AD9DF82030FE
:1047D00068492D2B14BF08A80DF1210003F046FDF8
:1047E00000287FF4EBAD4046634900F0FBFAE0E6B9
:1047F00003224046614903F007FE00287FF4DEAD46
:104800009DF81B305E492D2B14BF0DF11B0007A82E
:1048100003F02CFD00287FF4D1AD4046594900F04B
:10482000E1FA0323584A0193584B96E69DF8193054
:1048300003F0DF03502B7FF4C1AD02225449404600
:10484000FFF722FD0A2205A90DF11A0003F046F92F
:10485000059B1B78002B7FF4B1ADB0F5697F3FF469
:10486000B8AE00F3A58040F26A3398423FF7A6AD98
:1048700040F25133984240F3B280464BA0F252309E
:10488000C340DB073FF595AE98E54046424903F04B
:10489000EDFC00287FF492AD40463F4900F0A2FABB
:1048A00087E640463D4900F09DFA82E640463C4995
:1048B00000F098FA7DE640463A4900F093FA78E62F
:1048C000414605F59570CDE9022300F08BFA029A76
:1048D000039B019E41462846C5F8E020C5F8E43018
:1048E00085F8286103F080FAB9F1000F0BD1BAF115
:1048F000000F08D1012E06D09DF81890B9F1550986
:1049000018BF4FF00109BBF1000F0ED1C5F8E890B8
:104910002DE609F1010B58462349FCF7A9F9824617
:1049200058B981464FF0010B6BE54FF0FF33C5F8E6
:10493000E8301CE609F10109E9E558461B49FCF796
:1049400097F9814600283ED183464FF0010A58E589
:10495000F8A70008C0A700088D7C0008956D000826
:10496000DCA70008E0A70008E8A7000867666666FD
:1049700018A8000824A8000828A80008C4A7000850
:10498000C8A70008CCA700081D7C0008D56C00084B
:10499000F4A70008A51101017CA7000808A80008D9
:1049A00010A8000800A8000890A700089CA700080D
:1049B00040F2654398423FF4FCADA0F2E240082883
:1049C0007FF6F7ADFAE458461049FCF751F94FF07D
:1049D000000AB0FA80F9D3464FEA591911E540F2BE
:1049E000E12398423FF4E5AD09DC40F2B51398426B
:1049F0003FF4DFADB0F5347F7FF4E0ACD9E540F2B1
:104A0000073398427FF4DAACD3E500BFA8A70008CB
:104A100038B50D460E49044601F02EFD08B1037865
:104A200093B90C4B204653F8251001F025FD08B131
:104A300003784BB92046084901F01EFD28B10278E1
:104A4000064B002A08BF184638BD044838BD00BFD1
:104A500050A8000850AB000858A80008A803002080
:104A600006292DE9F84F804661D88B469246002AE8
:104A700000F09A80DFF8E091784E4C46354609F117
:104A8000C00729462046203400F0ACF9BC4205F1AD
:104A90002005F6D19AF800308BBBBBF1000F40F037
:104AA000888001246C4F21464046FFF7B1FF054640
:104AB00000F036FA1F283AD838462946013400F06B
:104AC00091F9072C07F12007EDD1DFF894A101241B
:104AD0005546614F3146284600F084F93A46214652
:104AE0006048FFF72FFC203520362037002871D092
:104AF0000134072CEED1BDE8F84FFFF7FBBBBBF14B
:104B0000000F1BD0504600F00BFA1F280FD8564C50
:104B1000514604EB4B14204600F064F922465946F6
:104B20005048FFF70FFC0446FFF7E4FB03E01626AE
:104B30000024C8F800602046BDE8F88F2F215046B9
:104B400003F0D6FB0446002868D042782F2A08BF1D
:104B5000431C04D11C4613F8012F2F2AFAD0002A37
:104B6000E5D00125DFF8F0B0A4EB0A021F2ADEDC55
:104B700051465846013203F023FC237801352F2B90
:104B800003D114F8013F2F2BFBD0002B54D0224629
:104B900012F8013F0BB12F2BFAD1072D0BF1200B8F
:104BA00093D0A2461446DFE7B1B32E4C04EB411478
:104BB000C1E759464046FFF72BFF054600F0B0F924
:104BC0001F28B4D8284C294604EB4B14204600F08B
:104BD00009F9A3E7012CD8F80060A9D0012506E067
:104BE0000135A54209F120090AF1200AA0D0514659
:104BF000484600F0F7F84A4629461A48FFF7A2FB54
:104C00000028EDD14846194900F0ECF84A462946FB
:104C10001448FFF797FBE3E7154C8CE7504600F08C
:104C20007FF91F2883D80C4C20465146203400F0D1
:104C3000D9F8BC42F8D148E7072D3FF446AF0A4CFB
:104C400004EB45142046A4F12001203400F0CAF8FA
:104C5000BC42F7D139E700BF380E00205C020020CB
:104C6000580D00203C020020180E002078A70008F4
:104C700054010020014B93F8280170473C020020AA
:104C800003460A46024908681946FFF7E9BE00BF15
:104C900004000020F0307047004870472C030020CB
:104CA000004870472C030020002238B5064D04460A
:104CB00008462A6005F088FC431C00D038BD2B68EC
:104CC000002BFBD0236038BDFC0E0020194B1B6865
:104CD00083422ED0416C70B5054681B100268C59B7
:104CE0003CB121462468284601F092FA002CF8D104
:104CF000696C0436802EF2D1284601F089FAA96B3E
:104D000011B1284601F084FA2C6C34B12146246894
:104D1000284601F07DFA002CF8D1E96C11B1284643
:104D200001F076FA6B6B1BB12846BDE8704018475E
:104D300070BD70470400002038B50C4611460022B3
:104D40008446074D20462A601A46644605F064FCF6
:104D5000431C00D038BD2B68002BFBD0236038BD2E
:104D6000FC0E002038B50C46114600228446074D43
:104D700020462A601A46644605F056FC431C00D0C3
:104D800038BD2B68002BFBD0236038BDFC0E002003
:104D900038B50C46114600228446074D20462A604D
:104DA0001A46644605F056FC431C00D038BD2B68FB
:104DB000002BFBD0236038BDFC0E0020704700BFE5
:104DC000704700BF704700BF704700BF704700BF0B
:104DD000704700BF0120704701207047704700BF37
:104DE000704700BF80EA0102844612F0030F4FD1E2
:104DF00011F0030F32D14DF8044D11F0040F51F8AA
:104E0000043B0BD0A3F101329A4312F0803F04BF60
:104E10004CF8043B51F8043B16D100BF51F8044B49
:104E2000A3F101329A4312F0803FA4F101320BD179
:104E30004CF8043BA24312F0803F04BF51F8043BFE
:104E40004CF8044BEAD023460CF8013B13F0FF0F5B
:104E50004FEA3323F8D15DF8044B704711F0010F8E
:104E600006D011F8012B0CF8012B002A08BF70475F
:104E700011F0020FBFD031F8022B12F0FF0F16BF56
:104E80002CF8022B8CF8002012F47F4FB3D170471E
:104E900011F8012B0CF8012B002AF9D1704700BF43
:104EA00030B586468007CCB215D0F4460EEB02052D
:104EB00007E0634613F8011BA14206D0990705D00D
:104EC0009C4665456046F4D1002030BD013A7244ED
:104ED0009E46A2EB0C02032A0CD8002AF4D073469B
:104EE000724401E09A42EFD0184613F8011BA14228
:104EF000F8D130BD714604EB042505EB05458E461F
:104F000051F8043B6B40A3F1013020EA030313F096
:104F1000803FE4D1043A032AF1D88E46DDE700BF92
:104F200020F0030110F00300C0F1000051F8043B31
:104F300000F1040C4FEACC0C6FF000021CBF22FA07
:104F40000CF213434FF0010C4CEA0C2C4CEA0C4CC5
:104F5000A3EB0C0222EA030212EACC1204BF51F8BE
:104F6000043B0430F4D0C2F1000102EA0102B2FABB
:104F700082F2C2F11F0200EBD2007047F8B50027A1
:104F8000DFF858C021F00043634504460D46176022
:104F900021D8844653EA0C0C1DD0DFF844C01646D5
:104FA00001EA0C0C0A46BCF1000F09D100220D4B9E
:104FB000FCF722FA6FF0350704460A4621F0004359
:104FC0001B156FF31E52A3F2FE333B4442F07F5594
:104FD000336045F4001520462946F8BDFFFFEF7FFA
:104FE0000000F07F000050432DE9F04F03690C6989
:104FF00085B0A342C0F291808146013C01F11405C5
:1050000009F1140855F8243058F824C001339C45A0
:10501000BCFBF3F64FEA840005EB840708EB84023F
:1050200043D34FF0000CAA46CDE90105C6466346BE
:1050300065469346CDF80C805AF8040BDEF8002044
:105040001FFA80FC06FB0C554FEA10484FEA154C3E
:1050500006FB08CCADB290B2401B18441FFA8CF38B
:10506000C3EB204303EB124380B240EA03405745B1
:105070004EF8040B4FEA1C454FEA2343DCD2DDE92E
:105080000105DDF80C8058F8003073B9ABF104026B
:10509000904504D307E0904504F1FF3403D252F861
:1050A0000439002BF7D0C9F81040484602F016FA30
:1050B00000282EDB4146002255F8040BD1F800C031
:1050C0001FFA80FE1FFA8CF3A3EB0E031344020CAD
:1050D000C2EB234202EB1C429BB243EA0243AF42C3
:1050E00041F8043B4FEA2242E6D258F8242008EB6C
:1050F00084036AB9043B434504D807E0984504F1AA
:10510000FF3403D253F80429002AF7D0C9F810401D
:105110000136304605B0BDE8F08F002005B0BDE88F
:10512000F08F00BF000000002DE9F04F16461F462B
:10513000816B9FB00446CDE904672B9D41B10123EB
:10514000C26B93408B604A6001F0F6FE0023A363BC
:10515000B7F10009B4BF012300232B60B44BBCBFDF
:1051600029F00049CDF8149033EA090300F0A48037
:10517000DDE904231046194600220023CDE902018F
:10518000FCF7A2FB824668B101232A9A13602C9B8C
:1051900013B1A84B2C9A1360A74B079307981FB025
:1051A000BDE8F08F1CAB01931DAB00932046DDE9F9
:1051B000022302F0E5FA5FEA1955DDF870800990E4
:1051C00040F090801D9D454405F23243202B40F372
:1051D0002D82C3F1400309FA03F905F2124326FABE
:1051E00003F349EA0300FCF78DF80123013D109316
:1051F000A1F1F87319460022904BFBF745FF86A3F7
:10520000D3E90023FCF7F8F885A3D3E90023FBF7E3
:105210003DFF064628460F46FCF784F882A3D3E9F3
:105220000023FCF7E9F802460B4630463946FBF707
:105230002DFF06460F46FCF78FFB002281460890A3
:10524000002330463946FCF749FB002840F0158121
:10525000A8EB0508089D08F1FF3B162D00F2F88029
:10526000DDE90201764A02EBC503D3E90023FCF72E
:1052700035FB002840F0D481B8F1000F0D9040F3C9
:105280008A85AB440C950A9000230B93289B092B2D
:105290003CD8052BC4BF043B2893289BC8BF0025DE
:1052A000A3F10203D8BF0125032B31D8DFE813F0A7
:1052B000ED02EA02DF02C70142F20F732A9AC9F334
:1052C000130959EA0609136019D12C9B002B00F031
:1052D0002E875C4B079308332C9A079813601FB0F6
:1052E000BDE8F08FDDE90201C1F3130343F07F5302
:1052F000CDF840A0A5F2FF3543F440137AE72C9B8C
:10530000002B40F09881504B079347E700232893E8
:10531000002520462946E56301F0E8FD07900028B6
:1053200000F0AE86079BA3631D9B002BC0F2B380E9
:10533000089A0E2A00F3AF80DDE90289404B40460F
:1053400003EBC203D3E90067494632463B46CDE949
:105350000467FCF77BF9FCF7FFFA0546FBF7E2FF71
:1053600032463B46FCF748F84FF0FF3A0B46024600
:1053700049464046FBF788FE05F13003079D05F8D6
:10538000013B02944FF001095446DDE904AB1DE0F6
:1053900052465B4630463946FCF758F9FCF7DCFAD2
:1053A0008046FBF7BFFF52465B46FCF725F809F144
:1053B00001090B46024639463046FBF765FE08F107
:1053C0003003A14505F8013B00F0428500221F4B48
:1053D000FCF712F80022002306460F46FCF774FA89
:1053E0000028D5D0AB46089F029C0137204609997A
:1053F00001F0A2FD00238BF800302A9B1F602C9B3C
:10540000002B3FF4CBAE0798C3F800B01FB0BDE847
:10541000F08F00BFAFF3008061436F63A787D23F77
:10542000B3C8608B288AC63FFB799F501344D33F93
:105430000000F07F69A7000868A700080000F83F97
:1054400058AC0008A8A80008B4A800080000244030
:1054500001230D93BBF1000FC0F2DC8000230A93FF
:10546000089B002B80F2D3800A9A089BD21A0A92DA
:1054700000225B420C920B9308E74846FBF752FF71
:1054800032463B46FCF720FA00287FF4E1AE09F1F2
:10549000FF330893DCE64FF0FF3A2995CDF850A092
:1054A000109A002A40F0F4811C9B0B9FC3F1360335
:1054B0000A9A01212046D5189B4401F059FE0A9A08
:1054C0000646002A40F082830B9B002B00F0F683F7
:1054D000002F40F0DA8320460B9A099901F02AFF49
:1054E000012309900B930121204601F041FE0C9B02
:1054F0000290002B40F00483289B012B40F38C8307
:105500000120584410F01F0000F0CA81C0F12003B0
:10551000042B40F39A830A9BC0F11C00034405440A
:105520000A938344002D05DD2A462046099901F09F
:1055300061FF0990BBF1000F05DD5A462046029934
:1055400001F058FF02900D9B002B40F0EF82BAF162
:10555000000F40F3B0820B9B002B40F0FC81089FB2
:1055600001370125DDF81C80DDF824B0DDF8089056
:1055700007E0594600230A22204601F0E7FC834653
:10558000013549465846FFF72FFD554500F13000DB
:1055900008F8010BEDDBBAF1000F0AF1FF35D8BFB7
:1055A0000025079B81465A1C05EB020A0025CDF811
:1055B00024B001220999204601F01CFF02990990AC
:1055C00001F08CFF002840F37C83079A02E09245AB
:1055D00000F082831AF8013CD346392B0AF1FF3AD6
:1055E000F5D001338AF800302046029901F0A4FC7E
:1055F000002E3FF4FBAE2DB1B54203D02946204624
:1056000001F09AFC3146204601F096FCEEE69B4400
:105610000C9339E6C8F101034FF0000B0A931FE722
:10562000089B013B089300230D9313E7C3F120036C
:1056300006FA03F0D7E59E4B079303334CE60123AC
:105640001293299B089A134403F1010A5646012E2E
:10565000B8BF01261493172E40F36085012204235E
:105660005B0003F11400B042114602F10102F7D9C8
:10567000E163204601F03AFC0790002800F0008525
:10568000BAF10E0FA06300F22181002D00F01E81FF
:10569000089A002A40F35683864902F00F0301EB73
:1056A000C303D1054FEA2215D3E9006740F1EE8329
:1056B000DDE90201804B4FF00309D3E90823FBF732
:1056C000C5FFCDE90E0105F00F0585B1DFF8E881D2
:1056D000EA0740F1E180F8E8022330463946FBF75B
:1056E0008BFE6D1006460F4609F10109F0D1DDE988
:1056F0000E0132463B46FBF7A9FFCDE90E010D9B9B
:1057000053B1DDE90E670022304639466B4BFCF79A
:10571000E5F8002840F06E844846FBF703FEDDE91B
:105720000E23FBF769FE0022654BFBF7AFFC064634
:10573000A1F15077BAF1000F00F0E182089BCDF89B
:1057400054A01B935B4B15991A9303EBC10353E9C8
:105750000212CDE91867DDE90E56CDE9161228468A
:105760003146FCF7F9F800F130035FFA83F8FBF7F4
:10577000D9FD0B46024631462846FBF785FC079BC0
:105780000F4612995D1C06460E95002900F0B18364
:10579000DDE9162300204B49FBF758FFDDE918230C
:1057A000FBF772FC02460B46DDF81CC0CDE9122364
:1057B0008CF8008032463B46FCF7AEF8002840F0FB
:1057C0006D84DDF85480CDF858B0CDF854A04FF07A
:1057D0000009DDE912AB0E942BE009F10109C14586
:1057E00080F2D081504659460022374BFBF704FE29
:1057F0000022354B82468B4630463946FBF7FCFD8E
:105800000F460646FCF7A8F80446FBF78BFD024658
:105810000B4630463946FBF737FC303452465B4680
:1058200005F8014B06460F46FCF758F8002840F0F3
:10583000348432463B4600202049FBF725FC524683
:105840005B46FCF74BF80028C7D01B9E0E9C079ABE
:10585000013602E0954200F0F583AB4615F8013DB4
:10586000392BF7D00133DBB237462B70BEE501236D
:105870001293299B002B40F3B881299B9A461E4620
:105880001493E8E600231293DBE600231293F0E77B
:105890000B9F03F233430BE66D1008F1080817E77E
:1058A0001C230A9A1D441A440A929B443AE600BFFC
:1058B000B4A8000858AC000830AC00080000F03F65
:1058C00000001C400000E03F000024401D9B002B16
:1058D000C0F24881089A0E2A00F34481A74B1A931C
:1058E000089A1A9B03EBC203D3E90023CDE90423F2
:1058F000299B002B80F2D182BAF1000F00F3CD82F8
:1059000040F01682DDE9040100229D4BFBF774FD97
:1059100002460B46DDE90201FBF7EAFF514600288B
:1059200040F007823123DDF81CB020460BF8013B24
:1059300001F002FB089F023758E5314600230A2296
:10594000204601F003FB149B0646002B40F3E08346
:10595000DDF850A008950A9B002B05DD31461A465C
:10596000204601F047FD06460C9B002B40F0598273
:10597000B046079B03F1FF3B1D460BEB0A030A935E
:10598000049BDDF824B003F001030B930299584601
:10599000FFF72AFB31468246584601F09FFD0299E7
:1059A00007464246204601F0B9FDC36801460AF1A8
:1059B0003009002B36D10990584601F08FFD099926
:1059C0000990204601F0B8FA099B002B58D1289B7A
:1059D0001BB90B9B002B00F08483002FC0F24D837A
:1059E000AA460A9B0AF8019B9D4200F07A8259461A
:1059F00000230A22204601F0A9FA46458346314693
:105A00004FF000034FF00A02204633D001F09EFA17
:105A1000414600230A220646204601F097FA5546E1
:105A20008046B3E72046CDF824B001F085FA002F78
:105A300006DB049B03F00102289B1F433A432CD151
:105A400001220999204601F0D5FC0299099001F044
:105A500045FD002840F32983B9F1390F00F0F582A4
:105A60000AF13109AB46089F3546013746460BF827
:105A7000019BB9E501F06AFA55460646804685E77E
:105A8000002FC0F20483289A17430B9A174300F0A3
:105A9000FE82002BA4DDCDF824B0B9F1390F00F05F
:105AA000D482AB46089F09F10103354601374646CB
:105AB0000BF8013B98E5289B022B7FF74CADBAF120
:105AC000000F40F09081534605220299204601F0D4
:105AD0003DFA01460290099801F000FD002840F3CC
